{
	"gameContract.sol": {
		"VersaGames": {
			"abi": [
				{
					"inputs": [
						{
							"internalType": "uint256",
							"name": "_initialStakeAmount",
							"type": "uint256"
						}
					],
					"stateMutability": "nonpayable",
					"type": "constructor"
				},
				{
					"inputs": [
						{
							"internalType": "address",
							"name": "owner",
							"type": "address"
						}
					],
					"name": "OwnableInvalidOwner",
					"type": "error"
				},
				{
					"inputs": [
						{
							"internalType": "address",
							"name": "account",
							"type": "address"
						}
					],
					"name": "OwnableUnauthorizedAccount",
					"type": "error"
				},
				{
					"anonymous": false,
					"inputs": [
						{
							"indexed": true,
							"internalType": "address",
							"name": "player",
							"type": "address"
						},
						{
							"indexed": false,
							"internalType": "uint256",
							"name": "amount",
							"type": "uint256"
						},
						{
							"indexed": false,
							"internalType": "uint256",
							"name": "timestamp",
							"type": "uint256"
						}
					],
					"name": "GamePlayed",
					"type": "event"
				},
				{
					"anonymous": false,
					"inputs": [
						{
							"indexed": true,
							"internalType": "address",
							"name": "previousOwner",
							"type": "address"
						},
						{
							"indexed": true,
							"internalType": "address",
							"name": "newOwner",
							"type": "address"
						}
					],
					"name": "OwnershipTransferred",
					"type": "event"
				},
				{
					"anonymous": false,
					"inputs": [
						{
							"indexed": true,
							"internalType": "address",
							"name": "winner",
							"type": "address"
						},
						{
							"indexed": false,
							"internalType": "uint256",
							"name": "amount",
							"type": "uint256"
						}
					],
					"name": "PrizeClaimed",
					"type": "event"
				},
				{
					"anonymous": false,
					"inputs": [
						{
							"indexed": false,
							"internalType": "uint256",
							"name": "amount",
							"type": "uint256"
						}
					],
					"name": "PrizePoolFunded",
					"type": "event"
				},
				{
					"anonymous": false,
					"inputs": [
						{
							"indexed": true,
							"internalType": "address",
							"name": "player",
							"type": "address"
						},
						{
							"indexed": false,
							"internalType": "uint256",
							"name": "amount",
							"type": "uint256"
						}
					],
					"name": "StakeWithdrawn",
					"type": "event"
				},
				{
					"inputs": [
						{
							"internalType": "address",
							"name": "",
							"type": "address"
						}
					],
					"name": "activeStakes",
					"outputs": [
						{
							"internalType": "uint256",
							"name": "",
							"type": "uint256"
						}
					],
					"stateMutability": "view",
					"type": "function"
				},
				{
					"inputs": [
						{
							"internalType": "address",
							"name": "player",
							"type": "address"
						}
					],
					"name": "canWithdraw",
					"outputs": [
						{
							"internalType": "bool",
							"name": "",
							"type": "bool"
						}
					],
					"stateMutability": "view",
					"type": "function"
				},
				{
					"inputs": [],
					"name": "claimPrize",
					"outputs": [],
					"stateMutability": "nonpayable",
					"type": "function"
				},
				{
					"inputs": [],
					"name": "fundPrizePool",
					"outputs": [],
					"stateMutability": "payable",
					"type": "function"
				},
				{
					"inputs": [
						{
							"internalType": "address",
							"name": "",
							"type": "address"
						}
					],
					"name": "hasPlayed",
					"outputs": [
						{
							"internalType": "bool",
							"name": "",
							"type": "bool"
						}
					],
					"stateMutability": "view",
					"type": "function"
				},
				{
					"inputs": [
						{
							"internalType": "address",
							"name": "",
							"type": "address"
						}
					],
					"name": "lastPlayed",
					"outputs": [
						{
							"internalType": "uint256",
							"name": "",
							"type": "uint256"
						}
					],
					"stateMutability": "view",
					"type": "function"
				},
				{
					"inputs": [],
					"name": "owner",
					"outputs": [
						{
							"internalType": "address",
							"name": "",
							"type": "address"
						}
					],
					"stateMutability": "view",
					"type": "function"
				},
				{
					"inputs": [],
					"name": "playGame",
					"outputs": [],
					"stateMutability": "payable",
					"type": "function"
				},
				{
					"inputs": [],
					"name": "prizePool",
					"outputs": [
						{
							"internalType": "uint256",
							"name": "",
							"type": "uint256"
						}
					],
					"stateMutability": "view",
					"type": "function"
				},
				{
					"inputs": [],
					"name": "renounceOwnership",
					"outputs": [],
					"stateMutability": "nonpayable",
					"type": "function"
				},
				{
					"inputs": [],
					"name": "stakeAmount",
					"outputs": [
						{
							"internalType": "uint256",
							"name": "",
							"type": "uint256"
						}
					],
					"stateMutability": "view",
					"type": "function"
				},
				{
					"inputs": [],
					"name": "totalGamesPlayed",
					"outputs": [
						{
							"internalType": "uint256",
							"name": "",
							"type": "uint256"
						}
					],
					"stateMutability": "view",
					"type": "function"
				},
				{
					"inputs": [
						{
							"internalType": "address",
							"name": "newOwner",
							"type": "address"
						}
					],
					"name": "transferOwnership",
					"outputs": [],
					"stateMutability": "nonpayable",
					"type": "function"
				},
				{
					"inputs": [],
					"name": "withdrawStake",
					"outputs": [],
					"stateMutability": "nonpayable",
					"type": "function"
				}
			],
			"devdoc": {
				"errors": {
					"OwnableInvalidOwner(address)": [
						{
							"details": "The owner is not a valid owner account. (eg. `address(0)`)"
						}
					],
					"OwnableUnauthorizedAccount(address)": [
						{
							"details": "The caller account is not authorized to perform an operation."
						}
					]
				},
				"kind": "dev",
				"methods": {
					"owner()": {
						"details": "Returns the address of the current owner."
					},
					"renounceOwnership()": {
						"details": "Leaves the contract without owner. It will not be possible to call `onlyOwner` functions. Can only be called by the current owner. NOTE: Renouncing ownership will leave the contract without an owner, thereby disabling any functionality that is only available to the owner."
					},
					"transferOwnership(address)": {
						"details": "Transfers ownership of the contract to a new account (`newOwner`). Can only be called by the current owner."
					}
				},
				"version": 1
			},
			"evm": {
				"assembly": "    /* \"gameContract.sol\":176:2669  contract VersaGames is Ownable {... */\n  mstore(0x40, 0x80)\n    /* \"gameContract.sol\":769:964  constructor(uint256 _initialStakeAmount) Ownable(msg.sender) {... */\n  callvalue\n  dup1\n  iszero\n  tag_1\n  jumpi\n  0x00\n  dup1\n  revert\ntag_1:\n  pop\n  mload(0x40)\n  sub(codesize, bytecodeSize)\n  dup1\n  bytecodeSize\n  dup4\n  codecopy\n  dup2\n  add\n  0x40\n  dup2\n  swap1\n  mstore\n  tag_2\n  swap2\n  tag_3\n  jump\t// in\ntag_2:\n    /* \"gameContract.sol\":818:828  msg.sender */\n  caller\n  dup1\n    /* \"@openzeppelin/contracts/access/Ownable.sol\":1269:1364  if (initialOwner == address(0)) {... */\n  tag_7\n  jumpi\n    /* \"@openzeppelin/contracts/access/Ownable.sol\":1322:1353  OwnableInvalidOwner(address(0)) */\n  mload(0x40)\n  shl(0xe0, 0x1e4fbdf7)\n  dup2\n  mstore\n    /* \"@openzeppelin/contracts/access/Ownable.sol\":1350:1351  0 */\n  0x00\n    /* \"@openzeppelin/contracts/access/Ownable.sol\":1322:1353  OwnableInvalidOwner(address(0)) */\n  0x04\n  dup3\n  add\n    /* \"#utility.yul\":349:400   */\n  mstore\n    /* \"#utility.yul\":322:340   */\n  0x24\n  add\n    /* \"@openzeppelin/contracts/access/Ownable.sol\":1322:1353  OwnableInvalidOwner(address(0)) */\ntag_8:\n  mload(0x40)\n  dup1\n  swap2\n  sub\n  swap1\n  revert\n    /* \"@openzeppelin/contracts/access/Ownable.sol\":1269:1364  if (initialOwner == address(0)) {... */\ntag_7:\n    /* \"@openzeppelin/contracts/access/Ownable.sol\":1373:1405  _transferOwnership(initialOwner) */\n  tag_10\n    /* \"@openzeppelin/contracts/access/Ownable.sol\":1392:1404  initialOwner */\n  dup2\n    /* \"@openzeppelin/contracts/access/Ownable.sol\":1373:1391  _transferOwnership */\n  tag_11\n    /* \"@openzeppelin/contracts/access/Ownable.sol\":1373:1405  _transferOwnership(initialOwner) */\n  jump\t// in\ntag_10:\n    /* \"@openzeppelin/contracts/access/Ownable.sol\":1225:1412  constructor(address initialOwner) {... */\n  pop\n    /* \"gameContract.sol\":871:872  0 */\n  0x00\n    /* \"gameContract.sol\":849:868  _initialStakeAmount */\n  dup2\n    /* \"gameContract.sol\":849:872  _initialStakeAmount > 0 */\n  gt\n    /* \"gameContract.sol\":841:912  require(_initialStakeAmount > 0, \"Stake amount must be greater than 0\") */\n  tag_13\n  jumpi\n  mload(0x40)\n  shl(0xe5, 0x461bcd)\n  dup2\n  mstore\n    /* \"#utility.yul\":613:615   */\n  0x20\n    /* \"gameContract.sol\":841:912  require(_initialStakeAmount > 0, \"Stake amount must be greater than 0\") */\n  0x04\n  dup3\n  add\n    /* \"#utility.yul\":595:616   */\n  mstore\n    /* \"#utility.yul\":652:654   */\n  0x23\n    /* \"#utility.yul\":632:650   */\n  0x24\n  dup3\n  add\n    /* \"#utility.yul\":625:655   */\n  mstore\n    /* \"#utility.yul\":691:725   */\n  0x5374616b6520616d6f756e74206d757374206265206772656174657220746861\n    /* \"#utility.yul\":671:689   */\n  0x44\n  dup3\n  add\n    /* \"#utility.yul\":664:726   */\n  mstore\n  shl(0xec, 0x06e203)\n    /* \"#utility.yul\":742:760   */\n  0x64\n  dup3\n  add\n    /* \"#utility.yul\":735:768   */\n  mstore\n    /* \"#utility.yul\":785:804   */\n  0x84\n  add\n    /* \"gameContract.sol\":841:912  require(_initialStakeAmount > 0, \"Stake amount must be greater than 0\") */\n  tag_8\n    /* \"#utility.yul\":411:810   */\n  jump\n    /* \"gameContract.sol\":841:912  require(_initialStakeAmount > 0, \"Stake amount must be greater than 0\") */\ntag_13:\n    /* \"gameContract.sol\":923:934  stakeAmount */\n  0x01\n    /* \"gameContract.sol\":923:956  stakeAmount = _initialStakeAmount */\n  sstore\n    /* \"gameContract.sol\":176:2669  contract VersaGames is Ownable {... */\n  jump(tag_18)\n    /* \"@openzeppelin/contracts/access/Ownable.sol\":2912:3099  function _transferOwnership(address newOwner) internal virtual {... */\ntag_11:\n    /* \"@openzeppelin/contracts/access/Ownable.sol\":2985:3001  address oldOwner */\n  0x00\n    /* \"@openzeppelin/contracts/access/Ownable.sol\":3004:3010  _owner */\n  dup1\n  sload\n  sub(shl(0xa0, 0x01), 0x01)\n    /* \"@openzeppelin/contracts/access/Ownable.sol\":3020:3037  _owner = newOwner */\n  dup4\n  dup2\n  and\n  not(sub(shl(0xa0, 0x01), 0x01))\n  dup4\n  and\n  dup2\n  or\n  dup5\n  sstore\n    /* \"@openzeppelin/contracts/access/Ownable.sol\":3052:3092  OwnershipTransferred(oldOwner, newOwner) */\n  mload(0x40)\n    /* \"@openzeppelin/contracts/access/Ownable.sol\":3004:3010  _owner */\n  swap2\n  swap1\n  swap3\n  and\n  swap3\n  dup4\n  swap2\n    /* \"@openzeppelin/contracts/access/Ownable.sol\":3052:3092  OwnershipTransferred(oldOwner, newOwner) */\n  0x8be0079c531659141344cd1fd0a4f28419497f9722a3daafe3b4186f6b6457e0\n  swap2\n    /* \"@openzeppelin/contracts/access/Ownable.sol\":2985:3001  address oldOwner */\n  swap1\n    /* \"@openzeppelin/contracts/access/Ownable.sol\":3052:3092  OwnershipTransferred(oldOwner, newOwner) */\n  log3\n    /* \"@openzeppelin/contracts/access/Ownable.sol\":2975:3099  {... */\n  pop\n    /* \"@openzeppelin/contracts/access/Ownable.sol\":2912:3099  function _transferOwnership(address newOwner) internal virtual {... */\n  pop\n  jump\t// out\n    /* \"#utility.yul\":14:198   */\ntag_3:\n    /* \"#utility.yul\":84:90   */\n  0x00\n    /* \"#utility.yul\":137:139   */\n  0x20\n    /* \"#utility.yul\":125:134   */\n  dup3\n    /* \"#utility.yul\":116:123   */\n  dup5\n    /* \"#utility.yul\":112:135   */\n  sub\n    /* \"#utility.yul\":108:140   */\n  slt\n    /* \"#utility.yul\":105:157   */\n  iszero\n  tag_20\n  jumpi\n    /* \"#utility.yul\":153:154   */\n  0x00\n    /* \"#utility.yul\":150:151   */\n  dup1\n    /* \"#utility.yul\":143:155   */\n  revert\n    /* \"#utility.yul\":105:157   */\ntag_20:\n  pop\n    /* \"#utility.yul\":176:192   */\n  mload\n  swap2\n    /* \"#utility.yul\":14:198   */\n  swap1\n  pop\n  jump\t// out\n    /* \"#utility.yul\":411:810   */\ntag_18:\n    /* \"gameContract.sol\":176:2669  contract VersaGames is Ownable {... */\n  dataSize(sub_0)\n  dup1\n  dataOffset(sub_0)\n  0x00\n  codecopy\n  0x00\n  return\nstop\n\nsub_0: assembly {\n        /* \"gameContract.sol\":176:2669  contract VersaGames is Ownable {... */\n      mstore(0x40, 0x80)\n      jumpi(tag_1, lt(calldatasize, 0x04))\n      shr(0xe0, calldataload(0x00))\n      dup1\n      0x719ce73e\n      gt\n      tag_16\n      jumpi\n      dup1\n      0xaf899735\n      gt\n      tag_17\n      jumpi\n      dup1\n      0xaf899735\n      eq\n      tag_12\n      jumpi\n      dup1\n      0xbed9d861\n      eq\n      tag_13\n      jumpi\n      dup1\n      0xc506f233\n      eq\n      tag_14\n      jumpi\n      dup1\n      0xf2fde38b\n      eq\n      tag_15\n      jumpi\n      0x00\n      dup1\n      revert\n    tag_17:\n      dup1\n      0x719ce73e\n      eq\n      tag_9\n      jumpi\n      dup1\n      0x88b2f7c3\n      eq\n      tag_10\n      jumpi\n      dup1\n      0x8da5cb5b\n      eq\n      tag_11\n      jumpi\n      0x00\n      dup1\n      revert\n    tag_16:\n      dup1\n      0x5c492129\n      gt\n      tag_18\n      jumpi\n      dup1\n      0x5c492129\n      eq\n      tag_5\n      jumpi\n      dup1\n      0x60c7dc47\n      eq\n      tag_6\n      jumpi\n      dup1\n      0x70740ac9\n      eq\n      tag_7\n      jumpi\n      dup1\n      0x715018a6\n      eq\n      tag_8\n      jumpi\n      0x00\n      dup1\n      revert\n    tag_18:\n      dup1\n      0x07cc6d69\n      eq\n      tag_2\n      jumpi\n      dup1\n      0x19262d30\n      eq\n      tag_3\n      jumpi\n      dup1\n      0x32d0bbe3\n      eq\n      tag_4\n      jumpi\n    tag_1:\n      0x00\n      dup1\n      revert\n        /* \"gameContract.sol\":353:400  mapping(address => uint256) public activeStakes */\n    tag_2:\n      callvalue\n      dup1\n      iszero\n      tag_19\n      jumpi\n      0x00\n      dup1\n      revert\n    tag_19:\n      pop\n      tag_20\n      tag_21\n      calldatasize\n      0x04\n      tag_22\n      jump\t// in\n    tag_21:\n      mstore(0x20, 0x04)\n      0x00\n      swap1\n      dup2\n      mstore\n      0x40\n      swap1\n      keccak256\n      sload\n      dup2\n      jump\n    tag_20:\n      mload(0x40)\n        /* \"#utility.yul\":451:476   */\n      swap1\n      dup2\n      mstore\n        /* \"#utility.yul\":439:441   */\n      0x20\n        /* \"#utility.yul\":424:442   */\n      add\n        /* \"gameContract.sol\":353:400  mapping(address => uint256) public activeStakes */\n    tag_24:\n      mload(0x40)\n      dup1\n      swap2\n      sub\n      swap1\n      return\n        /* \"gameContract.sol\":2504:2666  function canWithdraw(address player) external view returns (bool) {... */\n    tag_3:\n      callvalue\n      dup1\n      iszero\n      tag_26\n      jumpi\n      0x00\n      dup1\n      revert\n    tag_26:\n      pop\n      tag_27\n      tag_28\n      calldatasize\n      0x04\n      tag_22\n      jump\t// in\n    tag_28:\n      tag_29\n      jump\t// in\n    tag_27:\n      mload(0x40)\n        /* \"#utility.yul\":652:666   */\n      swap1\n      iszero\n        /* \"#utility.yul\":645:667   */\n      iszero\n        /* \"#utility.yul\":627:668   */\n      dup2\n      mstore\n        /* \"#utility.yul\":615:617   */\n      0x20\n        /* \"#utility.yul\":600:618   */\n      add\n        /* \"gameContract.sol\":2504:2666  function canWithdraw(address player) external view returns (bool) {... */\n      tag_24\n        /* \"#utility.yul\":487:674   */\n      jump\n        /* \"gameContract.sol\":407:448  mapping(address => bool) public hasPlayed */\n    tag_4:\n      callvalue\n      dup1\n      iszero\n      tag_32\n      jumpi\n      0x00\n      dup1\n      revert\n    tag_32:\n      pop\n      tag_27\n      tag_34\n      calldatasize\n      0x04\n      tag_22\n      jump\t// in\n    tag_34:\n      mstore(0x20, 0x05)\n      0x00\n      swap1\n      dup2\n      mstore\n      0x40\n      swap1\n      keccak256\n      sload\n      0xff\n      and\n      dup2\n      jump\n        /* \"gameContract.sol\":313:344  uint256 public totalGamesPlayed */\n    tag_5:\n      callvalue\n      dup1\n      iszero\n      tag_37\n      jumpi\n      0x00\n      dup1\n      revert\n    tag_37:\n      pop\n      tag_20\n      sload(0x03)\n      dup2\n      jump\n        /* \"gameContract.sol\":249:275  uint256 public stakeAmount */\n    tag_6:\n      callvalue\n      dup1\n      iszero\n      tag_41\n      jumpi\n      0x00\n      dup1\n      revert\n    tag_41:\n      pop\n      tag_20\n      sload(0x01)\n      dup2\n      jump\n        /* \"gameContract.sol\":2183:2438  function claimPrize() external onlyOwner {... */\n    tag_7:\n      callvalue\n      dup1\n      iszero\n      tag_45\n      jumpi\n      0x00\n      dup1\n      revert\n    tag_45:\n      pop\n      tag_46\n      tag_47\n      jump\t// in\n    tag_46:\n      stop\n        /* \"@openzeppelin/contracts/access/Ownable.sol\":2293:2394  function renounceOwnership() public virtual onlyOwner {... */\n    tag_8:\n      callvalue\n      dup1\n      iszero\n      tag_48\n      jumpi\n      0x00\n      dup1\n      revert\n    tag_48:\n      pop\n      tag_46\n      tag_50\n      jump\t// in\n        /* \"gameContract.sol\":282:306  uint256 public prizePool */\n    tag_9:\n      callvalue\n      dup1\n      iszero\n      tag_51\n      jumpi\n      0x00\n      dup1\n      revert\n    tag_51:\n      pop\n      tag_20\n      sload(0x02)\n      dup2\n      jump\n        /* \"gameContract.sol\":1512:1734  function fundPrizePool() external payable onlyOwner {... */\n    tag_10:\n      tag_46\n      tag_56\n      jump\t// in\n        /* \"@openzeppelin/contracts/access/Ownable.sol\":1638:1723  function owner() public view virtual returns (address) {... */\n    tag_11:\n      callvalue\n      dup1\n      iszero\n      tag_57\n      jumpi\n      0x00\n      dup1\n      revert\n    tag_57:\n      pop\n        /* \"@openzeppelin/contracts/access/Ownable.sol\":1684:1691  address */\n      0x00\n        /* \"@openzeppelin/contracts/access/Ownable.sol\":1710:1716  _owner */\n      sload\n        /* \"@openzeppelin/contracts/access/Ownable.sol\":1638:1723  function owner() public view virtual returns (address) {... */\n      mload(0x40)\n      sub(shl(0xa0, 0x01), 0x01)\n        /* \"@openzeppelin/contracts/access/Ownable.sol\":1710:1716  _owner */\n      swap1\n      swap2\n      and\n        /* \"#utility.yul\":825:876   */\n      dup2\n      mstore\n        /* \"#utility.yul\":813:815   */\n      0x20\n        /* \"#utility.yul\":798:816   */\n      add\n        /* \"@openzeppelin/contracts/access/Ownable.sol\":1638:1723  function owner() public view virtual returns (address) {... */\n      tag_24\n        /* \"#utility.yul\":679:882   */\n      jump\n        /* \"gameContract.sol\":972:1504  function playGame() external payable {... */\n    tag_12:\n      tag_46\n      tag_63\n      jump\t// in\n        /* \"gameContract.sol\":1742:2175  function withdrawStake() external {... */\n    tag_13:\n      callvalue\n      dup1\n      iszero\n      tag_64\n      jumpi\n      0x00\n      dup1\n      revert\n    tag_64:\n      pop\n      tag_46\n      tag_66\n      jump\t// in\n        /* \"gameContract.sol\":455:500  mapping(address => uint256) public lastPlayed */\n    tag_14:\n      callvalue\n      dup1\n      iszero\n      tag_67\n      jumpi\n      0x00\n      dup1\n      revert\n    tag_67:\n      pop\n      tag_20\n      tag_69\n      calldatasize\n      0x04\n      tag_22\n      jump\t// in\n    tag_69:\n      mstore(0x20, 0x06)\n      0x00\n      swap1\n      dup2\n      mstore\n      0x40\n      swap1\n      keccak256\n      sload\n      dup2\n      jump\n        /* \"@openzeppelin/contracts/access/Ownable.sol\":2543:2758  function transferOwnership(address newOwner) public virtual onlyOwner {... */\n    tag_15:\n      callvalue\n      dup1\n      iszero\n      tag_72\n      jumpi\n      0x00\n      dup1\n      revert\n    tag_72:\n      pop\n      tag_46\n      tag_74\n      calldatasize\n      0x04\n      tag_22\n      jump\t// in\n    tag_74:\n      tag_75\n      jump\t// in\n        /* \"gameContract.sol\":2504:2666  function canWithdraw(address player) external view returns (bool) {... */\n    tag_29:\n      sub(shl(0xa0, 0x01), 0x01)\n        /* \"gameContract.sol\":2588:2605  hasPlayed[player] */\n      dup2\n      and\n        /* \"gameContract.sol\":2564:2568  bool */\n      0x00\n        /* \"gameContract.sol\":2588:2605  hasPlayed[player] */\n      swap1\n      dup2\n      mstore\n        /* \"gameContract.sol\":2588:2597  hasPlayed */\n      0x05\n        /* \"gameContract.sol\":2588:2605  hasPlayed[player] */\n      0x20\n      mstore\n      0x40\n      dup2\n      keccak256\n      sload\n      0xff\n      and\n        /* \"gameContract.sol\":2588:2658  hasPlayed[player] && block.timestamp.sub(lastPlayed[player]) >= 1 days */\n      dup1\n      iszero\n      tag_77\n      jumpi\n      pop\n      sub(shl(0xa0, 0x01), 0x01)\n        /* \"gameContract.sol\":2629:2647  lastPlayed[player] */\n      dup3\n      and\n      0x00\n      swap1\n      dup2\n      mstore\n        /* \"gameContract.sol\":2629:2639  lastPlayed */\n      0x06\n        /* \"gameContract.sol\":2629:2647  lastPlayed[player] */\n      0x20\n      mstore\n      0x40\n      swap1\n      keccak256\n      sload\n        /* \"gameContract.sol\":2652:2658  1 days */\n      0x015180\n      swap1\n        /* \"gameContract.sol\":2609:2648  block.timestamp.sub(lastPlayed[player]) */\n      tag_78\n      swap1\n        /* \"gameContract.sol\":2609:2624  block.timestamp */\n      timestamp\n      swap1\n        /* \"gameContract.sol\":2609:2628  block.timestamp.sub */\n      tag_79\n        /* \"gameContract.sol\":2609:2648  block.timestamp.sub(lastPlayed[player]) */\n      jump\t// in\n    tag_78:\n        /* \"gameContract.sol\":2609:2658  block.timestamp.sub(lastPlayed[player]) >= 1 days */\n      lt\n      iszero\n        /* \"gameContract.sol\":2588:2658  hasPlayed[player] && block.timestamp.sub(lastPlayed[player]) >= 1 days */\n    tag_77:\n        /* \"gameContract.sol\":2581:2658  return hasPlayed[player] && block.timestamp.sub(lastPlayed[player]) >= 1 days */\n      swap3\n        /* \"gameContract.sol\":2504:2666  function canWithdraw(address player) external view returns (bool) {... */\n      swap2\n      pop\n      pop\n      jump\t// out\n        /* \"gameContract.sol\":2183:2438  function claimPrize() external onlyOwner {... */\n    tag_47:\n        /* \"@openzeppelin/contracts/access/Ownable.sol\":1531:1544  _checkOwner() */\n      tag_81\n        /* \"@openzeppelin/contracts/access/Ownable.sol\":1531:1542  _checkOwner */\n      tag_82\n        /* \"@openzeppelin/contracts/access/Ownable.sol\":1531:1544  _checkOwner() */\n      jump\t// in\n    tag_81:\n        /* \"gameContract.sol\":2255:2256  0 */\n      0x00\n        /* \"gameContract.sol\":2243:2252  prizePool */\n      sload(0x02)\n        /* \"gameContract.sol\":2243:2256  prizePool > 0 */\n      gt\n        /* \"gameContract.sol\":2235:2278  require(prizePool > 0, \"No prize to claim\") */\n      tag_84\n      jumpi\n      mload(0x40)\n      shl(0xe5, 0x461bcd)\n      dup2\n      mstore\n        /* \"#utility.yul\":1089:1091   */\n      0x20\n        /* \"gameContract.sol\":2235:2278  require(prizePool > 0, \"No prize to claim\") */\n      0x04\n      dup3\n      add\n        /* \"#utility.yul\":1071:1092   */\n      mstore\n        /* \"#utility.yul\":1128:1130   */\n      0x11\n        /* \"#utility.yul\":1108:1126   */\n      0x24\n      dup3\n      add\n        /* \"#utility.yul\":1101:1131   */\n      mstore\n      shl(0x78, 0x4e6f207072697a6520746f20636c61696d)\n        /* \"#utility.yul\":1147:1165   */\n      0x44\n      dup3\n      add\n        /* \"#utility.yul\":1140:1187   */\n      mstore\n        /* \"#utility.yul\":1204:1222   */\n      0x64\n      add\n        /* \"gameContract.sol\":2235:2278  require(prizePool > 0, \"No prize to claim\") */\n    tag_85:\n      mload(0x40)\n      dup1\n      swap2\n      sub\n      swap1\n      revert\n    tag_84:\n        /* \"gameContract.sol\":2306:2315  prizePool */\n      0x02\n      dup1\n      sload\n        /* \"gameContract.sol\":2289:2303  uint256 amount */\n      0x00\n        /* \"gameContract.sol\":2326:2339  prizePool = 0 */\n      swap1\n      swap2\n      sstore\n        /* \"gameContract.sol\":2360:2367  owner() */\n      tag_87\n        /* \"@openzeppelin/contracts/access/Ownable.sol\":1684:1691  address */\n      0x00\n        /* \"@openzeppelin/contracts/access/Ownable.sol\":1710:1716  _owner */\n      sload\n      sub(shl(0xa0, 0x01), 0x01)\n      and\n      swap1\n        /* \"@openzeppelin/contracts/access/Ownable.sol\":1638:1723  function owner() public view virtual returns (address) {... */\n      jump\n        /* \"gameContract.sol\":2360:2367  owner() */\n    tag_87:\n      sub(shl(0xa0, 0x01), 0x01)\n        /* \"gameContract.sol\":2352:2377  payable(owner()).transfer */\n      and\n        /* \"gameContract.sol\":2352:2385  payable(owner()).transfer(amount) */\n      0x08fc\n        /* \"gameContract.sol\":2378:2384  amount */\n      dup3\n        /* \"gameContract.sol\":2352:2385  payable(owner()).transfer(amount) */\n      swap1\n      dup2\n      iszero\n      mul\n      swap1\n      mload(0x40)\n      0x00\n      mload(0x40)\n      dup1\n      dup4\n      sub\n      dup2\n      dup6\n      dup9\n      dup9\n      call\n      swap4\n      pop\n      pop\n      pop\n      pop\n      iszero\n      dup1\n      iszero\n      tag_89\n      jumpi\n      returndatasize\n      0x00\n      dup1\n      returndatacopy\n      revert(0x00, returndatasize)\n    tag_89:\n      pop\n        /* \"@openzeppelin/contracts/access/Ownable.sol\":1684:1691  address */\n      0x00\n        /* \"@openzeppelin/contracts/access/Ownable.sol\":1710:1716  _owner */\n      sload\n      sub(shl(0xa0, 0x01), 0x01)\n      and\n      sub(shl(0xa0, 0x01), 0x01)\n        /* \"gameContract.sol\":2401:2430  PrizeClaimed(owner(), amount) */\n      and\n      0x95681e512bc0fe659e195e06c283eada494316f3d801213e48e7101af92bf770\n        /* \"gameContract.sol\":2423:2429  amount */\n      dup3\n        /* \"gameContract.sol\":2401:2430  PrizeClaimed(owner(), amount) */\n      mload(0x40)\n      tag_91\n      swap2\n        /* \"#utility.yul\":451:476   */\n      dup2\n      mstore\n        /* \"#utility.yul\":439:441   */\n      0x20\n        /* \"#utility.yul\":424:442   */\n      add\n      swap1\n        /* \"#utility.yul\":305:482   */\n      jump\n        /* \"gameContract.sol\":2401:2430  PrizeClaimed(owner(), amount) */\n    tag_91:\n      mload(0x40)\n      dup1\n      swap2\n      sub\n      swap1\n      log2\n        /* \"gameContract.sol\":2224:2438  {... */\n      pop\n        /* \"gameContract.sol\":2183:2438  function claimPrize() external onlyOwner {... */\n      jump\t// out\n        /* \"@openzeppelin/contracts/access/Ownable.sol\":2293:2394  function renounceOwnership() public virtual onlyOwner {... */\n    tag_50:\n        /* \"@openzeppelin/contracts/access/Ownable.sol\":1531:1544  _checkOwner() */\n      tag_93\n        /* \"@openzeppelin/contracts/access/Ownable.sol\":1531:1542  _checkOwner */\n      tag_82\n        /* \"@openzeppelin/contracts/access/Ownable.sol\":1531:1544  _checkOwner() */\n      jump\t// in\n    tag_93:\n        /* \"@openzeppelin/contracts/access/Ownable.sol\":2357:2387  _transferOwnership(address(0)) */\n      tag_95\n        /* \"@openzeppelin/contracts/access/Ownable.sol\":2384:2385  0 */\n      0x00\n        /* \"@openzeppelin/contracts/access/Ownable.sol\":2357:2375  _transferOwnership */\n      tag_96\n        /* \"@openzeppelin/contracts/access/Ownable.sol\":2357:2387  _transferOwnership(address(0)) */\n      jump\t// in\n    tag_95:\n        /* \"@openzeppelin/contracts/access/Ownable.sol\":2293:2394  function renounceOwnership() public virtual onlyOwner {... */\n      jump\t// out\n        /* \"gameContract.sol\":1512:1734  function fundPrizePool() external payable onlyOwner {... */\n    tag_56:\n        /* \"@openzeppelin/contracts/access/Ownable.sol\":1531:1544  _checkOwner() */\n      tag_98\n        /* \"@openzeppelin/contracts/access/Ownable.sol\":1531:1542  _checkOwner */\n      tag_82\n        /* \"@openzeppelin/contracts/access/Ownable.sol\":1531:1544  _checkOwner() */\n      jump\t// in\n    tag_98:\n        /* \"gameContract.sol\":1595:1596  0 */\n      0x00\n        /* \"gameContract.sol\":1583:1592  msg.value */\n      callvalue\n        /* \"gameContract.sol\":1583:1596  msg.value > 0 */\n      gt\n        /* \"gameContract.sol\":1575:1637  require(msg.value > 0, \"Must send ETH to fund the prize pool\") */\n      tag_100\n      jumpi\n      mload(0x40)\n      shl(0xe5, 0x461bcd)\n      dup2\n      mstore\n        /* \"#utility.yul\":1435:1437   */\n      0x20\n        /* \"gameContract.sol\":1575:1637  require(msg.value > 0, \"Must send ETH to fund the prize pool\") */\n      0x04\n      dup3\n      add\n        /* \"#utility.yul\":1417:1438   */\n      mstore\n        /* \"#utility.yul\":1474:1476   */\n      0x24\n        /* \"#utility.yul\":1454:1472   */\n      dup1\n      dup3\n      add\n        /* \"#utility.yul\":1447:1477   */\n      mstore\n        /* \"#utility.yul\":1513:1547   */\n      0x4d7573742073656e642045544820746f2066756e6420746865207072697a6520\n        /* \"#utility.yul\":1493:1511   */\n      0x44\n      dup3\n      add\n        /* \"#utility.yul\":1486:1548   */\n      mstore\n      shl(0xe2, 0x1c1bdbdb)\n        /* \"#utility.yul\":1564:1582   */\n      0x64\n      dup3\n      add\n        /* \"#utility.yul\":1557:1591   */\n      mstore\n        /* \"#utility.yul\":1608:1627   */\n      0x84\n      add\n        /* \"gameContract.sol\":1575:1637  require(msg.value > 0, \"Must send ETH to fund the prize pool\") */\n      tag_85\n        /* \"#utility.yul\":1233:1633   */\n      jump\n        /* \"gameContract.sol\":1575:1637  require(msg.value > 0, \"Must send ETH to fund the prize pool\") */\n    tag_100:\n        /* \"gameContract.sol\":1660:1669  prizePool */\n      sload(0x02)\n        /* \"gameContract.sol\":1660:1684  prizePool.add(msg.value) */\n      tag_103\n      swap1\n        /* \"gameContract.sol\":1674:1683  msg.value */\n      callvalue\n        /* \"gameContract.sol\":1660:1673  prizePool.add */\n      tag_104\n        /* \"gameContract.sol\":1660:1684  prizePool.add(msg.value) */\n      jump\t// in\n    tag_103:\n        /* \"gameContract.sol\":1648:1657  prizePool */\n      0x02\n        /* \"gameContract.sol\":1648:1684  prizePool = prizePool.add(msg.value) */\n      sstore\n        /* \"gameContract.sol\":1700:1726  PrizePoolFunded(msg.value) */\n      mload(0x40)\n        /* \"gameContract.sol\":1716:1725  msg.value */\n      callvalue\n        /* \"#utility.yul\":451:476   */\n      dup2\n      mstore\n        /* \"gameContract.sol\":1700:1726  PrizePoolFunded(msg.value) */\n      0x9d81ff1364df34467b23be983916ca00ebe5b231f3c47645a0ad063b56589f48\n      swap1\n        /* \"#utility.yul\":439:441   */\n      0x20\n        /* \"#utility.yul\":424:442   */\n      add\n        /* \"gameContract.sol\":1700:1726  PrizePoolFunded(msg.value) */\n      mload(0x40)\n      dup1\n      swap2\n      sub\n      swap1\n      log1\n        /* \"gameContract.sol\":1512:1734  function fundPrizePool() external payable onlyOwner {... */\n      jump\t// out\n        /* \"gameContract.sol\":972:1504  function playGame() external payable {... */\n    tag_63:\n        /* \"gameContract.sol\":1041:1052  stakeAmount */\n      sload(0x01)\n        /* \"gameContract.sol\":1028:1037  msg.value */\n      callvalue\n        /* \"gameContract.sol\":1028:1052  msg.value == stakeAmount */\n      eq\n        /* \"gameContract.sol\":1020:1079  require(msg.value == stakeAmount, \"Incorrect stake amount\") */\n      tag_108\n      jumpi\n      mload(0x40)\n      shl(0xe5, 0x461bcd)\n      dup2\n      mstore\n        /* \"#utility.yul\":1840:1842   */\n      0x20\n        /* \"gameContract.sol\":1020:1079  require(msg.value == stakeAmount, \"Incorrect stake amount\") */\n      0x04\n      dup3\n      add\n        /* \"#utility.yul\":1822:1843   */\n      mstore\n        /* \"#utility.yul\":1879:1881   */\n      0x16\n        /* \"#utility.yul\":1859:1877   */\n      0x24\n      dup3\n      add\n        /* \"#utility.yul\":1852:1882   */\n      mstore\n      shl(0x52, 0x125b98dbdc9c9958dd081cdd185ad948185b5bdd5b9d)\n        /* \"#utility.yul\":1898:1916   */\n      0x44\n      dup3\n      add\n        /* \"#utility.yul\":1891:1943   */\n      mstore\n        /* \"#utility.yul\":1960:1978   */\n      0x64\n      add\n        /* \"gameContract.sol\":1020:1079  require(msg.value == stakeAmount, \"Incorrect stake amount\") */\n      tag_85\n        /* \"#utility.yul\":1638:1984   */\n      jump\n        /* \"gameContract.sol\":1020:1079  require(msg.value == stakeAmount, \"Incorrect stake amount\") */\n    tag_108:\n        /* \"gameContract.sol\":1109:1119  msg.sender */\n      caller\n        /* \"gameContract.sol\":1099:1120  hasPlayed[msg.sender] */\n      0x00\n      swap1\n      dup2\n      mstore\n        /* \"gameContract.sol\":1099:1108  hasPlayed */\n      0x05\n        /* \"gameContract.sol\":1099:1120  hasPlayed[msg.sender] */\n      0x20\n      mstore\n      0x40\n      swap1\n      keccak256\n      sload\n      0xff\n      and\n        /* \"gameContract.sol\":1098:1120  !hasPlayed[msg.sender] */\n      iszero\n        /* \"gameContract.sol\":1090:1153  require(!hasPlayed[msg.sender], \"Already played in this round\") */\n      tag_111\n      jumpi\n      mload(0x40)\n      shl(0xe5, 0x461bcd)\n      dup2\n      mstore\n        /* \"#utility.yul\":2191:2193   */\n      0x20\n        /* \"gameContract.sol\":1090:1153  require(!hasPlayed[msg.sender], \"Already played in this round\") */\n      0x04\n      dup3\n      add\n        /* \"#utility.yul\":2173:2194   */\n      mstore\n        /* \"#utility.yul\":2230:2232   */\n      0x1c\n        /* \"#utility.yul\":2210:2228   */\n      0x24\n      dup3\n      add\n        /* \"#utility.yul\":2203:2233   */\n      mstore\n        /* \"#utility.yul\":2269:2299   */\n      0x416c726561647920706c6179656420696e207468697320726f756e6400000000\n        /* \"#utility.yul\":2249:2267   */\n      0x44\n      dup3\n      add\n        /* \"#utility.yul\":2242:2300   */\n      mstore\n        /* \"#utility.yul\":2317:2335   */\n      0x64\n      add\n        /* \"gameContract.sol\":1090:1153  require(!hasPlayed[msg.sender], \"Already played in this round\") */\n      tag_85\n        /* \"#utility.yul\":1989:2341   */\n      jump\n        /* \"gameContract.sol\":1090:1153  require(!hasPlayed[msg.sender], \"Already played in this round\") */\n    tag_111:\n        /* \"gameContract.sol\":1179:1189  msg.sender */\n      caller\n        /* \"gameContract.sol\":1166:1190  activeStakes[msg.sender] */\n      0x00\n      swap1\n      dup2\n      mstore\n        /* \"gameContract.sol\":1166:1178  activeStakes */\n      0x04\n        /* \"gameContract.sol\":1166:1190  activeStakes[msg.sender] */\n      0x20\n      swap1\n      dup2\n      mstore\n      0x40\n      dup1\n      dup4\n      keccak256\n        /* \"gameContract.sol\":1193:1202  msg.value */\n      callvalue\n        /* \"gameContract.sol\":1166:1202  activeStakes[msg.sender] = msg.value */\n      swap1\n      sstore\n        /* \"gameContract.sol\":1213:1222  hasPlayed */\n      0x05\n        /* \"gameContract.sol\":1213:1234  hasPlayed[msg.sender] */\n      dup3\n      mstore\n      dup1\n      dup4\n      keccak256\n        /* \"gameContract.sol\":1213:1241  hasPlayed[msg.sender] = true */\n      dup1\n      sload\n      not(0xff)\n      and\n        /* \"gameContract.sol\":1237:1241  true */\n      0x01\n        /* \"gameContract.sol\":1213:1241  hasPlayed[msg.sender] = true */\n      or\n      swap1\n      sstore\n        /* \"gameContract.sol\":1252:1262  lastPlayed */\n      0x06\n        /* \"gameContract.sol\":1252:1274  lastPlayed[msg.sender] */\n      swap1\n      swap2\n      mstore\n      dup2\n      keccak256\n        /* \"gameContract.sol\":1277:1292  block.timestamp */\n      timestamp\n        /* \"gameContract.sol\":1252:1292  lastPlayed[msg.sender] = block.timestamp */\n      swap1\n      sstore\n        /* \"gameContract.sol\":1303:1319  totalGamesPlayed */\n      0x03\n        /* \"gameContract.sol\":1303:1321  totalGamesPlayed++ */\n      dup1\n      sload\n      swap2\n      tag_114\n      dup4\n      tag_115\n      jump\t// in\n    tag_114:\n      swap1\n      swap2\n      sstore\n      pop\n      pop\n        /* \"gameContract.sol\":1404:1413  prizePool */\n      sload(0x02)\n        /* \"gameContract.sol\":1404:1428  prizePool.add(msg.value) */\n      tag_116\n      swap1\n        /* \"gameContract.sol\":1418:1427  msg.value */\n      callvalue\n        /* \"gameContract.sol\":1404:1417  prizePool.add */\n      tag_104\n        /* \"gameContract.sol\":1404:1428  prizePool.add(msg.value) */\n      jump\t// in\n    tag_116:\n        /* \"gameContract.sol\":1392:1401  prizePool */\n      0x02\n        /* \"gameContract.sol\":1392:1428  prizePool = prizePool.add(msg.value) */\n      sstore\n        /* \"gameContract.sol\":1446:1496  GamePlayed(msg.sender, msg.value, block.timestamp) */\n      0x40\n      dup1\n      mload\n        /* \"gameContract.sol\":1469:1478  msg.value */\n      callvalue\n        /* \"#utility.yul\":2792:2817   */\n      dup2\n      mstore\n        /* \"gameContract.sol\":1480:1495  block.timestamp */\n      timestamp\n        /* \"#utility.yul\":2848:2850   */\n      0x20\n        /* \"#utility.yul\":2833:2851   */\n      dup3\n      add\n        /* \"#utility.yul\":2826:2860   */\n      mstore\n        /* \"gameContract.sol\":1457:1467  msg.sender */\n      caller\n      swap2\n        /* \"gameContract.sol\":1446:1496  GamePlayed(msg.sender, msg.value, block.timestamp) */\n      0x24b31e1dbf1732a12bb700d3d77e5fb96ff3b693374d9fa15ccbc03f42715076\n      swap2\n        /* \"#utility.yul\":2765:2783   */\n      add\n        /* \"gameContract.sol\":1446:1496  GamePlayed(msg.sender, msg.value, block.timestamp) */\n      mload(0x40)\n      dup1\n      swap2\n      sub\n      swap1\n      log2\n        /* \"gameContract.sol\":972:1504  function playGame() external payable {... */\n      jump\t// out\n        /* \"gameContract.sol\":1742:2175  function withdrawStake() external {... */\n    tag_66:\n        /* \"gameContract.sol\":1805:1815  msg.sender */\n      caller\n        /* \"gameContract.sol\":1795:1816  hasPlayed[msg.sender] */\n      0x00\n      swap1\n      dup2\n      mstore\n        /* \"gameContract.sol\":1795:1804  hasPlayed */\n      0x05\n        /* \"gameContract.sol\":1795:1816  hasPlayed[msg.sender] */\n      0x20\n      mstore\n      0x40\n      swap1\n      keccak256\n      sload\n      0xff\n      and\n        /* \"gameContract.sol\":1787:1836  require(hasPlayed[msg.sender], \"No active stake\") */\n      tag_120\n      jumpi\n      mload(0x40)\n      shl(0xe5, 0x461bcd)\n      dup2\n      mstore\n        /* \"#utility.yul\":3073:3075   */\n      0x20\n        /* \"gameContract.sol\":1787:1836  require(hasPlayed[msg.sender], \"No active stake\") */\n      0x04\n      dup3\n      add\n        /* \"#utility.yul\":3055:3076   */\n      mstore\n        /* \"#utility.yul\":3112:3114   */\n      0x0f\n        /* \"#utility.yul\":3092:3110   */\n      0x24\n      dup3\n      add\n        /* \"#utility.yul\":3085:3115   */\n      mstore\n      shl(0x88, 0x4e6f20616374697665207374616b65)\n        /* \"#utility.yul\":3131:3149   */\n      0x44\n      dup3\n      add\n        /* \"#utility.yul\":3124:3169   */\n      mstore\n        /* \"#utility.yul\":3186:3204   */\n      0x64\n      add\n        /* \"gameContract.sol\":1787:1836  require(hasPlayed[msg.sender], \"No active stake\") */\n      tag_85\n        /* \"#utility.yul\":2871:3210   */\n      jump\n        /* \"gameContract.sol\":1787:1836  require(hasPlayed[msg.sender], \"No active stake\") */\n    tag_120:\n        /* \"gameContract.sol\":1886:1896  msg.sender */\n      caller\n        /* \"gameContract.sol\":1875:1897  lastPlayed[msg.sender] */\n      0x00\n      swap1\n      dup2\n      mstore\n        /* \"gameContract.sol\":1875:1885  lastPlayed */\n      0x06\n        /* \"gameContract.sol\":1875:1897  lastPlayed[msg.sender] */\n      0x20\n      mstore\n      0x40\n      swap1\n      keccak256\n      sload\n        /* \"gameContract.sol\":1902:1908  1 days */\n      0x015180\n      swap1\n        /* \"gameContract.sol\":1855:1898  block.timestamp.sub(lastPlayed[msg.sender]) */\n      tag_123\n      swap1\n        /* \"gameContract.sol\":1855:1870  block.timestamp */\n      timestamp\n      swap1\n        /* \"gameContract.sol\":1855:1874  block.timestamp.sub */\n      tag_79\n        /* \"gameContract.sol\":1855:1898  block.timestamp.sub(lastPlayed[msg.sender]) */\n      jump\t// in\n    tag_123:\n        /* \"gameContract.sol\":1855:1908  block.timestamp.sub(lastPlayed[msg.sender]) >= 1 days */\n      lt\n      iszero\n        /* \"gameContract.sol\":1847:1935  require(block.timestamp.sub(lastPlayed[msg.sender]) >= 1 days, \"Stake locked for 1 day\") */\n      tag_124\n      jumpi\n      mload(0x40)\n      shl(0xe5, 0x461bcd)\n      dup2\n      mstore\n        /* \"#utility.yul\":3417:3419   */\n      0x20\n        /* \"gameContract.sol\":1847:1935  require(block.timestamp.sub(lastPlayed[msg.sender]) >= 1 days, \"Stake locked for 1 day\") */\n      0x04\n      dup3\n      add\n        /* \"#utility.yul\":3399:3420   */\n      mstore\n        /* \"#utility.yul\":3456:3458   */\n      0x16\n        /* \"#utility.yul\":3436:3454   */\n      0x24\n      dup3\n      add\n        /* \"#utility.yul\":3429:3459   */\n      mstore\n      shl(0x50, 0x5374616b65206c6f636b656420666f72203120646179)\n        /* \"#utility.yul\":3475:3493   */\n      0x44\n      dup3\n      add\n        /* \"#utility.yul\":3468:3520   */\n      mstore\n        /* \"#utility.yul\":3537:3555   */\n      0x64\n      add\n        /* \"gameContract.sol\":1847:1935  require(block.timestamp.sub(lastPlayed[msg.sender]) >= 1 days, \"Stake locked for 1 day\") */\n      tag_85\n        /* \"#utility.yul\":3215:3561   */\n      jump\n        /* \"gameContract.sol\":1847:1935  require(block.timestamp.sub(lastPlayed[msg.sender]) >= 1 days, \"Stake locked for 1 day\") */\n    tag_124:\n        /* \"gameContract.sol\":1978:1988  msg.sender */\n      caller\n        /* \"gameContract.sol\":1948:1962  uint256 amount */\n      0x00\n        /* \"gameContract.sol\":1965:1989  activeStakes[msg.sender] */\n      dup2\n      dup2\n      mstore\n        /* \"gameContract.sol\":1965:1977  activeStakes */\n      0x04\n        /* \"gameContract.sol\":1965:1989  activeStakes[msg.sender] */\n      0x20\n      swap1\n      dup2\n      mstore\n      0x40\n      dup1\n      dup4\n      keccak256\n      dup1\n      sload\n        /* \"gameContract.sol\":2000:2028  activeStakes[msg.sender] = 0 */\n      swap1\n      dup5\n      swap1\n      sstore\n        /* \"gameContract.sol\":2039:2048  hasPlayed */\n      0x05\n        /* \"gameContract.sol\":2039:2060  hasPlayed[msg.sender] */\n      swap1\n      swap3\n      mstore\n      dup1\n      dup4\n      keccak256\n        /* \"gameContract.sol\":2039:2068  hasPlayed[msg.sender] = false */\n      dup1\n      sload\n      not(0xff)\n      and\n      swap1\n      sstore\n        /* \"gameContract.sol\":2081:2117  payable(msg.sender).transfer(amount) */\n      mload\n        /* \"gameContract.sol\":1965:1989  activeStakes[msg.sender] */\n      swap1\n      swap3\n        /* \"gameContract.sol\":1978:1988  msg.sender */\n      swap2\n        /* \"gameContract.sol\":2081:2117  payable(msg.sender).transfer(amount) */\n      dup4\n      iszero\n      0x08fc\n      mul\n      swap2\n        /* \"gameContract.sol\":1965:1989  activeStakes[msg.sender] */\n      dup5\n      swap2\n        /* \"gameContract.sol\":2081:2117  payable(msg.sender).transfer(amount) */\n      dup2\n        /* \"gameContract.sol\":1948:1962  uint256 amount */\n      dup2\n        /* \"gameContract.sol\":2081:2117  payable(msg.sender).transfer(amount) */\n      dup2\n        /* \"gameContract.sol\":1965:1989  activeStakes[msg.sender] */\n      dup6\n        /* \"gameContract.sol\":1978:1988  msg.sender */\n      dup9\n        /* \"gameContract.sol\":2081:2117  payable(msg.sender).transfer(amount) */\n      dup9\n      call\n      swap4\n      pop\n      pop\n      pop\n      pop\n      iszero\n      dup1\n      iszero\n      tag_128\n      jumpi\n      returndatasize\n      0x00\n      dup1\n      returndatacopy\n      revert(0x00, returndatasize)\n    tag_128:\n      pop\n        /* \"gameContract.sol\":2133:2167  StakeWithdrawn(msg.sender, amount) */\n      mload(0x40)\n        /* \"#utility.yul\":451:476   */\n      dup2\n      dup2\n      mstore\n        /* \"gameContract.sol\":2148:2158  msg.sender */\n      caller\n      swap1\n        /* \"gameContract.sol\":2133:2167  StakeWithdrawn(msg.sender, amount) */\n      0x8108595eb6bad3acefa9da467d90cc2217686d5c5ac85460f8b7849c840645fc\n      swap1\n        /* \"#utility.yul\":439:441   */\n      0x20\n        /* \"#utility.yul\":424:442   */\n      add\n        /* \"gameContract.sol\":2133:2167  StakeWithdrawn(msg.sender, amount) */\n      tag_91\n        /* \"#utility.yul\":305:482   */\n      jump\n        /* \"@openzeppelin/contracts/access/Ownable.sol\":2543:2758  function transferOwnership(address newOwner) public virtual onlyOwner {... */\n    tag_75:\n        /* \"@openzeppelin/contracts/access/Ownable.sol\":1531:1544  _checkOwner() */\n      tag_131\n        /* \"@openzeppelin/contracts/access/Ownable.sol\":1531:1542  _checkOwner */\n      tag_82\n        /* \"@openzeppelin/contracts/access/Ownable.sol\":1531:1544  _checkOwner() */\n      jump\t// in\n    tag_131:\n      sub(shl(0xa0, 0x01), 0x01)\n        /* \"@openzeppelin/contracts/access/Ownable.sol\":2627:2649  newOwner == address(0) */\n      dup2\n      and\n        /* \"@openzeppelin/contracts/access/Ownable.sol\":2623:2714  if (newOwner == address(0)) {... */\n      tag_133\n      jumpi\n        /* \"@openzeppelin/contracts/access/Ownable.sol\":2672:2703  OwnableInvalidOwner(address(0)) */\n      mload(0x40)\n      shl(0xe0, 0x1e4fbdf7)\n      dup2\n      mstore\n        /* \"@openzeppelin/contracts/access/Ownable.sol\":2700:2701  0 */\n      0x00\n        /* \"@openzeppelin/contracts/access/Ownable.sol\":2672:2703  OwnableInvalidOwner(address(0)) */\n      0x04\n      dup3\n      add\n        /* \"#utility.yul\":825:876   */\n      mstore\n        /* \"#utility.yul\":798:816   */\n      0x24\n      add\n        /* \"@openzeppelin/contracts/access/Ownable.sol\":2672:2703  OwnableInvalidOwner(address(0)) */\n      tag_85\n        /* \"#utility.yul\":679:882   */\n      jump\n        /* \"@openzeppelin/contracts/access/Ownable.sol\":2623:2714  if (newOwner == address(0)) {... */\n    tag_133:\n        /* \"@openzeppelin/contracts/access/Ownable.sol\":2723:2751  _transferOwnership(newOwner) */\n      tag_135\n        /* \"@openzeppelin/contracts/access/Ownable.sol\":2742:2750  newOwner */\n      dup2\n        /* \"@openzeppelin/contracts/access/Ownable.sol\":2723:2741  _transferOwnership */\n      tag_96\n        /* \"@openzeppelin/contracts/access/Ownable.sol\":2723:2751  _transferOwnership(newOwner) */\n      jump\t// in\n    tag_135:\n        /* \"@openzeppelin/contracts/access/Ownable.sol\":2543:2758  function transferOwnership(address newOwner) public virtual onlyOwner {... */\n      pop\n      jump\t// out\n        /* \"@openzeppelin/contracts/utils/math/SafeMath.sol\":3122:3218  function sub(uint256 a, uint256 b) internal pure returns (uint256) {... */\n    tag_79:\n        /* \"@openzeppelin/contracts/utils/math/SafeMath.sol\":3180:3187  uint256 */\n      0x00\n        /* \"@openzeppelin/contracts/utils/math/SafeMath.sol\":3206:3211  a - b */\n      tag_137\n        /* \"@openzeppelin/contracts/utils/math/SafeMath.sol\":3210:3211  b */\n      dup3\n        /* \"@openzeppelin/contracts/utils/math/SafeMath.sol\":3206:3207  a */\n      dup5\n        /* \"@openzeppelin/contracts/utils/math/SafeMath.sol\":3206:3211  a - b */\n      tag_138\n      jump\t// in\n    tag_137:\n        /* \"@openzeppelin/contracts/utils/math/SafeMath.sol\":3199:3211  return a - b */\n      swap4\n        /* \"@openzeppelin/contracts/utils/math/SafeMath.sol\":3122:3218  function sub(uint256 a, uint256 b) internal pure returns (uint256) {... */\n      swap3\n      pop\n      pop\n      pop\n      jump\t// out\n        /* \"@openzeppelin/contracts/access/Ownable.sol\":1796:1958  function _checkOwner() internal view virtual {... */\n    tag_82:\n        /* \"@openzeppelin/contracts/access/Ownable.sol\":1684:1691  address */\n      0x00\n        /* \"@openzeppelin/contracts/access/Ownable.sol\":1710:1716  _owner */\n      sload\n      sub(shl(0xa0, 0x01), 0x01)\n      and\n        /* \"@openzeppelin/contracts/utils/Context.sol\":735:745  msg.sender */\n      caller\n        /* \"@openzeppelin/contracts/access/Ownable.sol\":1855:1878  owner() != _msgSender() */\n      eq\n        /* \"@openzeppelin/contracts/access/Ownable.sol\":1851:1952  if (owner() != _msgSender()) {... */\n      tag_95\n      jumpi\n        /* \"@openzeppelin/contracts/access/Ownable.sol\":1901:1941  OwnableUnauthorizedAccount(_msgSender()) */\n      mload(0x40)\n      shl(0xe0, 0x118cdaa7)\n      dup2\n      mstore\n        /* \"@openzeppelin/contracts/utils/Context.sol\":735:745  msg.sender */\n      caller\n        /* \"@openzeppelin/contracts/access/Ownable.sol\":1901:1941  OwnableUnauthorizedAccount(_msgSender()) */\n      0x04\n      dup3\n      add\n        /* \"#utility.yul\":825:876   */\n      mstore\n        /* \"#utility.yul\":798:816   */\n      0x24\n      add\n        /* \"@openzeppelin/contracts/access/Ownable.sol\":1901:1941  OwnableUnauthorizedAccount(_msgSender()) */\n      tag_85\n        /* \"#utility.yul\":679:882   */\n      jump\n        /* \"@openzeppelin/contracts/access/Ownable.sol\":2912:3099  function _transferOwnership(address newOwner) internal virtual {... */\n    tag_96:\n        /* \"@openzeppelin/contracts/access/Ownable.sol\":2985:3001  address oldOwner */\n      0x00\n        /* \"@openzeppelin/contracts/access/Ownable.sol\":3004:3010  _owner */\n      dup1\n      sload\n      sub(shl(0xa0, 0x01), 0x01)\n        /* \"@openzeppelin/contracts/access/Ownable.sol\":3020:3037  _owner = newOwner */\n      dup4\n      dup2\n      and\n      not(sub(shl(0xa0, 0x01), 0x01))\n      dup4\n      and\n      dup2\n      or\n      dup5\n      sstore\n        /* \"@openzeppelin/contracts/access/Ownable.sol\":3052:3092  OwnershipTransferred(oldOwner, newOwner) */\n      mload(0x40)\n        /* \"@openzeppelin/contracts/access/Ownable.sol\":3004:3010  _owner */\n      swap2\n      swap1\n      swap3\n      and\n      swap3\n      dup4\n      swap2\n        /* \"@openzeppelin/contracts/access/Ownable.sol\":3052:3092  OwnershipTransferred(oldOwner, newOwner) */\n      0x8be0079c531659141344cd1fd0a4f28419497f9722a3daafe3b4186f6b6457e0\n      swap2\n        /* \"@openzeppelin/contracts/access/Ownable.sol\":2985:3001  address oldOwner */\n      swap1\n        /* \"@openzeppelin/contracts/access/Ownable.sol\":3052:3092  OwnershipTransferred(oldOwner, newOwner) */\n      log3\n        /* \"@openzeppelin/contracts/access/Ownable.sol\":2975:3099  {... */\n      pop\n        /* \"@openzeppelin/contracts/access/Ownable.sol\":2912:3099  function _transferOwnership(address newOwner) internal virtual {... */\n      pop\n      jump\t// out\n        /* \"@openzeppelin/contracts/utils/math/SafeMath.sol\":2755:2851  function add(uint256 a, uint256 b) internal pure returns (uint256) {... */\n    tag_104:\n        /* \"@openzeppelin/contracts/utils/math/SafeMath.sol\":2813:2820  uint256 */\n      0x00\n        /* \"@openzeppelin/contracts/utils/math/SafeMath.sol\":2839:2844  a + b */\n      tag_137\n        /* \"@openzeppelin/contracts/utils/math/SafeMath.sol\":2843:2844  b */\n      dup3\n        /* \"@openzeppelin/contracts/utils/math/SafeMath.sol\":2839:2840  a */\n      dup5\n        /* \"@openzeppelin/contracts/utils/math/SafeMath.sol\":2839:2844  a + b */\n      tag_149\n      jump\t// in\n        /* \"#utility.yul\":14:300   */\n    tag_22:\n        /* \"#utility.yul\":73:79   */\n      0x00\n        /* \"#utility.yul\":126:128   */\n      0x20\n        /* \"#utility.yul\":114:123   */\n      dup3\n        /* \"#utility.yul\":105:112   */\n      dup5\n        /* \"#utility.yul\":101:124   */\n      sub\n        /* \"#utility.yul\":97:129   */\n      slt\n        /* \"#utility.yul\":94:146   */\n      iszero\n      tag_154\n      jumpi\n        /* \"#utility.yul\":142:143   */\n      0x00\n        /* \"#utility.yul\":139:140   */\n      dup1\n        /* \"#utility.yul\":132:144   */\n      revert\n        /* \"#utility.yul\":94:146   */\n    tag_154:\n        /* \"#utility.yul\":168:191   */\n      dup2\n      calldataload\n      sub(shl(0xa0, 0x01), 0x01)\n        /* \"#utility.yul\":220:251   */\n      dup2\n      and\n        /* \"#utility.yul\":210:252   */\n      dup2\n      eq\n        /* \"#utility.yul\":200:270   */\n      tag_137\n      jumpi\n        /* \"#utility.yul\":266:267   */\n      0x00\n        /* \"#utility.yul\":263:264   */\n      dup1\n        /* \"#utility.yul\":256:268   */\n      revert\n        /* \"#utility.yul\":2346:2473   */\n    tag_151:\n        /* \"#utility.yul\":2407:2417   */\n      0x4e487b71\n        /* \"#utility.yul\":2402:2405   */\n      0xe0\n        /* \"#utility.yul\":2398:2418   */\n      shl\n        /* \"#utility.yul\":2395:2396   */\n      0x00\n        /* \"#utility.yul\":2388:2419   */\n      mstore\n        /* \"#utility.yul\":2438:2442   */\n      0x11\n        /* \"#utility.yul\":2435:2436   */\n      0x04\n        /* \"#utility.yul\":2428:2443   */\n      mstore\n        /* \"#utility.yul\":2462:2466   */\n      0x24\n        /* \"#utility.yul\":2459:2460   */\n      0x00\n        /* \"#utility.yul\":2452:2467   */\n      revert\n        /* \"#utility.yul\":2478:2613   */\n    tag_115:\n        /* \"#utility.yul\":2517:2520   */\n      0x00\n        /* \"#utility.yul\":2538:2555   */\n      0x01\n      dup3\n      add\n        /* \"#utility.yul\":2535:2578   */\n      tag_166\n      jumpi\n        /* \"#utility.yul\":2558:2576   */\n      tag_166\n      tag_151\n      jump\t// in\n    tag_166:\n      pop\n        /* \"#utility.yul\":2605:2606   */\n      0x01\n        /* \"#utility.yul\":2594:2607   */\n      add\n      swap1\n        /* \"#utility.yul\":2478:2613   */\n      jump\t// out\n        /* \"#utility.yul\":3566:3694   */\n    tag_138:\n        /* \"#utility.yul\":3633:3642   */\n      dup2\n      dup2\n      sub\n        /* \"#utility.yul\":3654:3665   */\n      dup2\n      dup2\n      gt\n        /* \"#utility.yul\":3651:3688   */\n      iszero\n      tag_77\n      jumpi\n        /* \"#utility.yul\":3668:3686   */\n      tag_77\n      tag_151\n      jump\t// in\n        /* \"#utility.yul\":3699:3824   */\n    tag_149:\n        /* \"#utility.yul\":3764:3773   */\n      dup1\n      dup3\n      add\n        /* \"#utility.yul\":3785:3795   */\n      dup1\n      dup3\n      gt\n        /* \"#utility.yul\":3782:3818   */\n      iszero\n      tag_77\n      jumpi\n        /* \"#utility.yul\":3798:3816   */\n      tag_77\n      tag_151\n      jump\t// in\n\n    auxdata: 0xa2646970667358221220bc88c9553163062dfed9a1000e954a31a7ba598a652c426ae20fb7af23bed92164736f6c63430008140033\n}\n",
				"bytecode": {
					"linkReferences": {},
					"object": "608060405234801561000f575f80fd5b5060405161099b38038061099b83398101604081905261002e91610110565b338061005457604051631e4fbdf760e01b81525f60048201526024015b60405180910390fd5b61005d816100c1565b505f81116100b95760405162461bcd60e51b815260206004820152602360248201527f5374616b6520616d6f756e74206d75737420626520677265617465722074686160448201526206e20360ec1b606482015260840161004b565b600155610127565b5f80546001600160a01b038381166001600160a01b0319831681178455604051919092169283917f8be0079c531659141344cd1fd0a4f28419497f9722a3daafe3b4186f6b6457e09190a35050565b5f60208284031215610120575f80fd5b5051919050565b610867806101345f395ff3fe6080604052600436106100d9575f3560e01c8063719ce73e1161007c578063af89973511610057578063af8997351461020f578063bed9d86114610217578063c506f2331461022b578063f2fde38b14610256575f80fd5b8063719ce73e146101cc57806388b2f7c3146101e15780638da5cb5b146101e9575f80fd5b80635c492129116100b75780635c4921291461017857806360c7dc471461018d57806370740ac9146101a2578063715018a6146101b8575f80fd5b806307cc6d69146100dd57806319262d301461011b57806332d0bbe31461014a575b5f80fd5b3480156100e8575f80fd5b506101086100f73660046107b9565b60046020525f908152604090205481565b6040519081526020015b60405180910390f35b348015610126575f80fd5b5061013a6101353660046107b9565b610275565b6040519015158152602001610112565b348015610155575f80fd5b5061013a6101643660046107b9565b60056020525f908152604090205460ff1681565b348015610183575f80fd5b5061010860035481565b348015610198575f80fd5b5061010860015481565b3480156101ad575f80fd5b506101b66102c8565b005b3480156101c3575f80fd5b506101b66103b9565b3480156101d7575f80fd5b5061010860025481565b6101b66103cc565b3480156101f4575f80fd5b505f546040516001600160a01b039091168152602001610112565b6101b6610474565b348015610222575f80fd5b506101b66105ac565b348015610236575f80fd5b506101086102453660046107b9565b60066020525f908152604090205481565b348015610261575f80fd5b506101b66102703660046107b9565b6106e4565b6001600160a01b0381165f9081526005602052604081205460ff1680156102c257506001600160a01b0382165f9081526006602052604090205462015180906102bf904290610721565b10155b92915050565b6102d0610733565b5f6002541161031a5760405162461bcd60e51b81526020600482015260116024820152704e6f207072697a6520746f20636c61696d60781b60448201526064015b60405180910390fd5b600280545f9091556103335f546001600160a01b031690565b6001600160a01b03166108fc8290811502906040515f60405180830381858888f19350505050158015610368573d5f803e3d5ffd5b505f546001600160a01b03166001600160a01b03167f95681e512bc0fe659e195e06c283eada494316f3d801213e48e7101af92bf770826040516103ae91815260200190565b60405180910390a250565b6103c1610733565b6103ca5f61075f565b565b6103d4610733565b5f341161042f5760405162461bcd60e51b8152602060048201526024808201527f4d7573742073656e642045544820746f2066756e6420746865207072697a65206044820152631c1bdbdb60e21b6064820152608401610311565b60025461043c90346107ae565b6002556040513481527f9d81ff1364df34467b23be983916ca00ebe5b231f3c47645a0ad063b56589f489060200160405180910390a1565b60015434146104be5760405162461bcd60e51b8152602060048201526016602482015275125b98dbdc9c9958dd081cdd185ad948185b5bdd5b9d60521b6044820152606401610311565b335f9081526005602052604090205460ff161561051d5760405162461bcd60e51b815260206004820152601c60248201527f416c726561647920706c6179656420696e207468697320726f756e64000000006044820152606401610311565b335f90815260046020908152604080832034905560058252808320805460ff1916600117905560069091528120429055600380549161055b836107f3565b909155505060025461056d90346107ae565b6002556040805134815242602082015233917f24b31e1dbf1732a12bb700d3d77e5fb96ff3b693374d9fa15ccbc03f42715076910160405180910390a2565b335f9081526005602052604090205460ff166105fc5760405162461bcd60e51b815260206004820152600f60248201526e4e6f20616374697665207374616b6560881b6044820152606401610311565b335f90815260066020526040902054620151809061061b904290610721565b10156106625760405162461bcd60e51b81526020600482015260166024820152755374616b65206c6f636b656420666f7220312064617960501b6044820152606401610311565b335f8181526004602090815260408083208054908490556005909252808320805460ff191690555190929183156108fc02918491818181858888f193505050501580156106b1573d5f803e3d5ffd5b5060405181815233907f8108595eb6bad3acefa9da467d90cc2217686d5c5ac85460f8b7849c840645fc906020016103ae565b6106ec610733565b6001600160a01b03811661071557604051631e4fbdf760e01b81525f6004820152602401610311565b61071e8161075f565b50565b5f61072c828461080b565b9392505050565b5f546001600160a01b031633146103ca5760405163118cdaa760e01b8152336004820152602401610311565b5f80546001600160a01b038381166001600160a01b0319831681178455604051919092169283917f8be0079c531659141344cd1fd0a4f28419497f9722a3daafe3b4186f6b6457e09190a35050565b5f61072c828461081e565b5f602082840312156107c9575f80fd5b81356001600160a01b038116811461072c575f80fd5b634e487b7160e01b5f52601160045260245ffd5b5f60018201610804576108046107df565b5060010190565b818103818111156102c2576102c26107df565b808201808211156102c2576102c26107df56fea2646970667358221220bc88c9553163062dfed9a1000e954a31a7ba598a652c426ae20fb7af23bed92164736f6c63430008140033",
					"opcodes": "PUSH1 0x80 PUSH1 0x40 MSTORE CALLVALUE DUP1 ISZERO PUSH2 0xF JUMPI PUSH0 DUP1 REVERT JUMPDEST POP PUSH1 0x40 MLOAD PUSH2 0x99B CODESIZE SUB DUP1 PUSH2 0x99B DUP4 CODECOPY DUP2 ADD PUSH1 0x40 DUP2 SWAP1 MSTORE PUSH2 0x2E SWAP2 PUSH2 0x110 JUMP JUMPDEST CALLER DUP1 PUSH2 0x54 JUMPI PUSH1 0x40 MLOAD PUSH4 0x1E4FBDF7 PUSH1 0xE0 SHL DUP2 MSTORE PUSH0 PUSH1 0x4 DUP3 ADD MSTORE PUSH1 0x24 ADD JUMPDEST PUSH1 0x40 MLOAD DUP1 SWAP2 SUB SWAP1 REVERT JUMPDEST PUSH2 0x5D DUP2 PUSH2 0xC1 JUMP JUMPDEST POP PUSH0 DUP2 GT PUSH2 0xB9 JUMPI PUSH1 0x40 MLOAD PUSH3 0x461BCD PUSH1 0xE5 SHL DUP2 MSTORE PUSH1 0x20 PUSH1 0x4 DUP3 ADD MSTORE PUSH1 0x23 PUSH1 0x24 DUP3 ADD MSTORE PUSH32 0x5374616B6520616D6F756E74206D757374206265206772656174657220746861 PUSH1 0x44 DUP3 ADD MSTORE PUSH3 0x6E203 PUSH1 0xEC SHL PUSH1 0x64 DUP3 ADD MSTORE PUSH1 0x84 ADD PUSH2 0x4B JUMP JUMPDEST PUSH1 0x1 SSTORE PUSH2 0x127 JUMP JUMPDEST PUSH0 DUP1 SLOAD PUSH1 0x1 PUSH1 0x1 PUSH1 0xA0 SHL SUB DUP4 DUP2 AND PUSH1 0x1 PUSH1 0x1 PUSH1 0xA0 SHL SUB NOT DUP4 AND DUP2 OR DUP5 SSTORE PUSH1 0x40 MLOAD SWAP2 SWAP1 SWAP3 AND SWAP3 DUP4 SWAP2 PUSH32 0x8BE0079C531659141344CD1FD0A4F28419497F9722A3DAAFE3B4186F6B6457E0 SWAP2 SWAP1 LOG3 POP POP JUMP JUMPDEST PUSH0 PUSH1 0x20 DUP3 DUP5 SUB SLT ISZERO PUSH2 0x120 JUMPI PUSH0 DUP1 REVERT JUMPDEST POP MLOAD SWAP2 SWAP1 POP JUMP JUMPDEST PUSH2 0x867 DUP1 PUSH2 0x134 PUSH0 CODECOPY PUSH0 RETURN INVALID PUSH1 0x80 PUSH1 0x40 MSTORE PUSH1 0x4 CALLDATASIZE LT PUSH2 0xD9 JUMPI PUSH0 CALLDATALOAD PUSH1 0xE0 SHR DUP1 PUSH4 0x719CE73E GT PUSH2 0x7C JUMPI DUP1 PUSH4 0xAF899735 GT PUSH2 0x57 JUMPI DUP1 PUSH4 0xAF899735 EQ PUSH2 0x20F JUMPI DUP1 PUSH4 0xBED9D861 EQ PUSH2 0x217 JUMPI DUP1 PUSH4 0xC506F233 EQ PUSH2 0x22B JUMPI DUP1 PUSH4 0xF2FDE38B EQ PUSH2 0x256 JUMPI PUSH0 DUP1 REVERT JUMPDEST DUP1 PUSH4 0x719CE73E EQ PUSH2 0x1CC JUMPI DUP1 PUSH4 0x88B2F7C3 EQ PUSH2 0x1E1 JUMPI DUP1 PUSH4 0x8DA5CB5B EQ PUSH2 0x1E9 JUMPI PUSH0 DUP1 REVERT JUMPDEST DUP1 PUSH4 0x5C492129 GT PUSH2 0xB7 JUMPI DUP1 PUSH4 0x5C492129 EQ PUSH2 0x178 JUMPI DUP1 PUSH4 0x60C7DC47 EQ PUSH2 0x18D JUMPI DUP1 PUSH4 0x70740AC9 EQ PUSH2 0x1A2 JUMPI DUP1 PUSH4 0x715018A6 EQ PUSH2 0x1B8 JUMPI PUSH0 DUP1 REVERT JUMPDEST DUP1 PUSH4 0x7CC6D69 EQ PUSH2 0xDD JUMPI DUP1 PUSH4 0x19262D30 EQ PUSH2 0x11B JUMPI DUP1 PUSH4 0x32D0BBE3 EQ PUSH2 0x14A JUMPI JUMPDEST PUSH0 DUP1 REVERT JUMPDEST CALLVALUE DUP1 ISZERO PUSH2 0xE8 JUMPI PUSH0 DUP1 REVERT JUMPDEST POP PUSH2 0x108 PUSH2 0xF7 CALLDATASIZE PUSH1 0x4 PUSH2 0x7B9 JUMP JUMPDEST PUSH1 0x4 PUSH1 0x20 MSTORE PUSH0 SWAP1 DUP2 MSTORE PUSH1 0x40 SWAP1 KECCAK256 SLOAD DUP2 JUMP JUMPDEST PUSH1 0x40 MLOAD SWAP1 DUP2 MSTORE PUSH1 0x20 ADD JUMPDEST PUSH1 0x40 MLOAD DUP1 SWAP2 SUB SWAP1 RETURN JUMPDEST CALLVALUE DUP1 ISZERO PUSH2 0x126 JUMPI PUSH0 DUP1 REVERT JUMPDEST POP PUSH2 0x13A PUSH2 0x135 CALLDATASIZE PUSH1 0x4 PUSH2 0x7B9 JUMP JUMPDEST PUSH2 0x275 JUMP JUMPDEST PUSH1 0x40 MLOAD SWAP1 ISZERO ISZERO DUP2 MSTORE PUSH1 0x20 ADD PUSH2 0x112 JUMP JUMPDEST CALLVALUE DUP1 ISZERO PUSH2 0x155 JUMPI PUSH0 DUP1 REVERT JUMPDEST POP PUSH2 0x13A PUSH2 0x164 CALLDATASIZE PUSH1 0x4 PUSH2 0x7B9 JUMP JUMPDEST PUSH1 0x5 PUSH1 0x20 MSTORE PUSH0 SWAP1 DUP2 MSTORE PUSH1 0x40 SWAP1 KECCAK256 SLOAD PUSH1 0xFF AND DUP2 JUMP JUMPDEST CALLVALUE DUP1 ISZERO PUSH2 0x183 JUMPI PUSH0 DUP1 REVERT JUMPDEST POP PUSH2 0x108 PUSH1 0x3 SLOAD DUP2 JUMP JUMPDEST CALLVALUE DUP1 ISZERO PUSH2 0x198 JUMPI PUSH0 DUP1 REVERT JUMPDEST POP PUSH2 0x108 PUSH1 0x1 SLOAD DUP2 JUMP JUMPDEST CALLVALUE DUP1 ISZERO PUSH2 0x1AD JUMPI PUSH0 DUP1 REVERT JUMPDEST POP PUSH2 0x1B6 PUSH2 0x2C8 JUMP JUMPDEST STOP JUMPDEST CALLVALUE DUP1 ISZERO PUSH2 0x1C3 JUMPI PUSH0 DUP1 REVERT JUMPDEST POP PUSH2 0x1B6 PUSH2 0x3B9 JUMP JUMPDEST CALLVALUE DUP1 ISZERO PUSH2 0x1D7 JUMPI PUSH0 DUP1 REVERT JUMPDEST POP PUSH2 0x108 PUSH1 0x2 SLOAD DUP2 JUMP JUMPDEST PUSH2 0x1B6 PUSH2 0x3CC JUMP JUMPDEST CALLVALUE DUP1 ISZERO PUSH2 0x1F4 JUMPI PUSH0 DUP1 REVERT JUMPDEST POP PUSH0 SLOAD PUSH1 0x40 MLOAD PUSH1 0x1 PUSH1 0x1 PUSH1 0xA0 SHL SUB SWAP1 SWAP2 AND DUP2 MSTORE PUSH1 0x20 ADD PUSH2 0x112 JUMP JUMPDEST PUSH2 0x1B6 PUSH2 0x474 JUMP JUMPDEST CALLVALUE DUP1 ISZERO PUSH2 0x222 JUMPI PUSH0 DUP1 REVERT JUMPDEST POP PUSH2 0x1B6 PUSH2 0x5AC JUMP JUMPDEST CALLVALUE DUP1 ISZERO PUSH2 0x236 JUMPI PUSH0 DUP1 REVERT JUMPDEST POP PUSH2 0x108 PUSH2 0x245 CALLDATASIZE PUSH1 0x4 PUSH2 0x7B9 JUMP JUMPDEST PUSH1 0x6 PUSH1 0x20 MSTORE PUSH0 SWAP1 DUP2 MSTORE PUSH1 0x40 SWAP1 KECCAK256 SLOAD DUP2 JUMP JUMPDEST CALLVALUE DUP1 ISZERO PUSH2 0x261 JUMPI PUSH0 DUP1 REVERT JUMPDEST POP PUSH2 0x1B6 PUSH2 0x270 CALLDATASIZE PUSH1 0x4 PUSH2 0x7B9 JUMP JUMPDEST PUSH2 0x6E4 JUMP JUMPDEST PUSH1 0x1 PUSH1 0x1 PUSH1 0xA0 SHL SUB DUP2 AND PUSH0 SWAP1 DUP2 MSTORE PUSH1 0x5 PUSH1 0x20 MSTORE PUSH1 0x40 DUP2 KECCAK256 SLOAD PUSH1 0xFF AND DUP1 ISZERO PUSH2 0x2C2 JUMPI POP PUSH1 0x1 PUSH1 0x1 PUSH1 0xA0 SHL SUB DUP3 AND PUSH0 SWAP1 DUP2 MSTORE PUSH1 0x6 PUSH1 0x20 MSTORE PUSH1 0x40 SWAP1 KECCAK256 SLOAD PUSH3 0x15180 SWAP1 PUSH2 0x2BF SWAP1 TIMESTAMP SWAP1 PUSH2 0x721 JUMP JUMPDEST LT ISZERO JUMPDEST SWAP3 SWAP2 POP POP JUMP JUMPDEST PUSH2 0x2D0 PUSH2 0x733 JUMP JUMPDEST PUSH0 PUSH1 0x2 SLOAD GT PUSH2 0x31A JUMPI PUSH1 0x40 MLOAD PUSH3 0x461BCD PUSH1 0xE5 SHL DUP2 MSTORE PUSH1 0x20 PUSH1 0x4 DUP3 ADD MSTORE PUSH1 0x11 PUSH1 0x24 DUP3 ADD MSTORE PUSH17 0x4E6F207072697A6520746F20636C61696D PUSH1 0x78 SHL PUSH1 0x44 DUP3 ADD MSTORE PUSH1 0x64 ADD JUMPDEST PUSH1 0x40 MLOAD DUP1 SWAP2 SUB SWAP1 REVERT JUMPDEST PUSH1 0x2 DUP1 SLOAD PUSH0 SWAP1 SWAP2 SSTORE PUSH2 0x333 PUSH0 SLOAD PUSH1 0x1 PUSH1 0x1 PUSH1 0xA0 SHL SUB AND SWAP1 JUMP JUMPDEST PUSH1 0x1 PUSH1 0x1 PUSH1 0xA0 SHL SUB AND PUSH2 0x8FC DUP3 SWAP1 DUP2 ISZERO MUL SWAP1 PUSH1 0x40 MLOAD PUSH0 PUSH1 0x40 MLOAD DUP1 DUP4 SUB DUP2 DUP6 DUP9 DUP9 CALL SWAP4 POP POP POP POP ISZERO DUP1 ISZERO PUSH2 0x368 JUMPI RETURNDATASIZE PUSH0 DUP1 RETURNDATACOPY RETURNDATASIZE PUSH0 REVERT JUMPDEST POP PUSH0 SLOAD PUSH1 0x1 PUSH1 0x1 PUSH1 0xA0 SHL SUB AND PUSH1 0x1 PUSH1 0x1 PUSH1 0xA0 SHL SUB AND PUSH32 0x95681E512BC0FE659E195E06C283EADA494316F3D801213E48E7101AF92BF770 DUP3 PUSH1 0x40 MLOAD PUSH2 0x3AE SWAP2 DUP2 MSTORE PUSH1 0x20 ADD SWAP1 JUMP JUMPDEST PUSH1 0x40 MLOAD DUP1 SWAP2 SUB SWAP1 LOG2 POP JUMP JUMPDEST PUSH2 0x3C1 PUSH2 0x733 JUMP JUMPDEST PUSH2 0x3CA PUSH0 PUSH2 0x75F JUMP JUMPDEST JUMP JUMPDEST PUSH2 0x3D4 PUSH2 0x733 JUMP JUMPDEST PUSH0 CALLVALUE GT PUSH2 0x42F JUMPI PUSH1 0x40 MLOAD PUSH3 0x461BCD PUSH1 0xE5 SHL DUP2 MSTORE PUSH1 0x20 PUSH1 0x4 DUP3 ADD MSTORE PUSH1 0x24 DUP1 DUP3 ADD MSTORE PUSH32 0x4D7573742073656E642045544820746F2066756E6420746865207072697A6520 PUSH1 0x44 DUP3 ADD MSTORE PUSH4 0x1C1BDBDB PUSH1 0xE2 SHL PUSH1 0x64 DUP3 ADD MSTORE PUSH1 0x84 ADD PUSH2 0x311 JUMP JUMPDEST PUSH1 0x2 SLOAD PUSH2 0x43C SWAP1 CALLVALUE PUSH2 0x7AE JUMP JUMPDEST PUSH1 0x2 SSTORE PUSH1 0x40 MLOAD CALLVALUE DUP2 MSTORE PUSH32 0x9D81FF1364DF34467B23BE983916CA00EBE5B231F3C47645A0AD063B56589F48 SWAP1 PUSH1 0x20 ADD PUSH1 0x40 MLOAD DUP1 SWAP2 SUB SWAP1 LOG1 JUMP JUMPDEST PUSH1 0x1 SLOAD CALLVALUE EQ PUSH2 0x4BE JUMPI PUSH1 0x40 MLOAD PUSH3 0x461BCD PUSH1 0xE5 SHL DUP2 MSTORE PUSH1 0x20 PUSH1 0x4 DUP3 ADD MSTORE PUSH1 0x16 PUSH1 0x24 DUP3 ADD MSTORE PUSH22 0x125B98DBDC9C9958DD081CDD185AD948185B5BDD5B9D PUSH1 0x52 SHL PUSH1 0x44 DUP3 ADD MSTORE PUSH1 0x64 ADD PUSH2 0x311 JUMP JUMPDEST CALLER PUSH0 SWAP1 DUP2 MSTORE PUSH1 0x5 PUSH1 0x20 MSTORE PUSH1 0x40 SWAP1 KECCAK256 SLOAD PUSH1 0xFF AND ISZERO PUSH2 0x51D JUMPI PUSH1 0x40 MLOAD PUSH3 0x461BCD PUSH1 0xE5 SHL DUP2 MSTORE PUSH1 0x20 PUSH1 0x4 DUP3 ADD MSTORE PUSH1 0x1C PUSH1 0x24 DUP3 ADD MSTORE PUSH32 0x416C726561647920706C6179656420696E207468697320726F756E6400000000 PUSH1 0x44 DUP3 ADD MSTORE PUSH1 0x64 ADD PUSH2 0x311 JUMP JUMPDEST CALLER PUSH0 SWAP1 DUP2 MSTORE PUSH1 0x4 PUSH1 0x20 SWAP1 DUP2 MSTORE PUSH1 0x40 DUP1 DUP4 KECCAK256 CALLVALUE SWAP1 SSTORE PUSH1 0x5 DUP3 MSTORE DUP1 DUP4 KECCAK256 DUP1 SLOAD PUSH1 0xFF NOT AND PUSH1 0x1 OR SWAP1 SSTORE PUSH1 0x6 SWAP1 SWAP2 MSTORE DUP2 KECCAK256 TIMESTAMP SWAP1 SSTORE PUSH1 0x3 DUP1 SLOAD SWAP2 PUSH2 0x55B DUP4 PUSH2 0x7F3 JUMP JUMPDEST SWAP1 SWAP2 SSTORE POP POP PUSH1 0x2 SLOAD PUSH2 0x56D SWAP1 CALLVALUE PUSH2 0x7AE JUMP JUMPDEST PUSH1 0x2 SSTORE PUSH1 0x40 DUP1 MLOAD CALLVALUE DUP2 MSTORE TIMESTAMP PUSH1 0x20 DUP3 ADD MSTORE CALLER SWAP2 PUSH32 0x24B31E1DBF1732A12BB700D3D77E5FB96FF3B693374D9FA15CCBC03F42715076 SWAP2 ADD PUSH1 0x40 MLOAD DUP1 SWAP2 SUB SWAP1 LOG2 JUMP JUMPDEST CALLER PUSH0 SWAP1 DUP2 MSTORE PUSH1 0x5 PUSH1 0x20 MSTORE PUSH1 0x40 SWAP1 KECCAK256 SLOAD PUSH1 0xFF AND PUSH2 0x5FC JUMPI PUSH1 0x40 MLOAD PUSH3 0x461BCD PUSH1 0xE5 SHL DUP2 MSTORE PUSH1 0x20 PUSH1 0x4 DUP3 ADD MSTORE PUSH1 0xF PUSH1 0x24 DUP3 ADD MSTORE PUSH15 0x4E6F20616374697665207374616B65 PUSH1 0x88 SHL PUSH1 0x44 DUP3 ADD MSTORE PUSH1 0x64 ADD PUSH2 0x311 JUMP JUMPDEST CALLER PUSH0 SWAP1 DUP2 MSTORE PUSH1 0x6 PUSH1 0x20 MSTORE PUSH1 0x40 SWAP1 KECCAK256 SLOAD PUSH3 0x15180 SWAP1 PUSH2 0x61B SWAP1 TIMESTAMP SWAP1 PUSH2 0x721 JUMP JUMPDEST LT ISZERO PUSH2 0x662 JUMPI PUSH1 0x40 MLOAD PUSH3 0x461BCD PUSH1 0xE5 SHL DUP2 MSTORE PUSH1 0x20 PUSH1 0x4 DUP3 ADD MSTORE PUSH1 0x16 PUSH1 0x24 DUP3 ADD MSTORE PUSH22 0x5374616B65206C6F636B656420666F72203120646179 PUSH1 0x50 SHL PUSH1 0x44 DUP3 ADD MSTORE PUSH1 0x64 ADD PUSH2 0x311 JUMP JUMPDEST CALLER PUSH0 DUP2 DUP2 MSTORE PUSH1 0x4 PUSH1 0x20 SWAP1 DUP2 MSTORE PUSH1 0x40 DUP1 DUP4 KECCAK256 DUP1 SLOAD SWAP1 DUP5 SWAP1 SSTORE PUSH1 0x5 SWAP1 SWAP3 MSTORE DUP1 DUP4 KECCAK256 DUP1 SLOAD PUSH1 0xFF NOT AND SWAP1 SSTORE MLOAD SWAP1 SWAP3 SWAP2 DUP4 ISZERO PUSH2 0x8FC MUL SWAP2 DUP5 SWAP2 DUP2 DUP2 DUP2 DUP6 DUP9 DUP9 CALL SWAP4 POP POP POP POP ISZERO DUP1 ISZERO PUSH2 0x6B1 JUMPI RETURNDATASIZE PUSH0 DUP1 RETURNDATACOPY RETURNDATASIZE PUSH0 REVERT JUMPDEST POP PUSH1 0x40 MLOAD DUP2 DUP2 MSTORE CALLER SWAP1 PUSH32 0x8108595EB6BAD3ACEFA9DA467D90CC2217686D5C5AC85460F8B7849C840645FC SWAP1 PUSH1 0x20 ADD PUSH2 0x3AE JUMP JUMPDEST PUSH2 0x6EC PUSH2 0x733 JUMP JUMPDEST PUSH1 0x1 PUSH1 0x1 PUSH1 0xA0 SHL SUB DUP2 AND PUSH2 0x715 JUMPI PUSH1 0x40 MLOAD PUSH4 0x1E4FBDF7 PUSH1 0xE0 SHL DUP2 MSTORE PUSH0 PUSH1 0x4 DUP3 ADD MSTORE PUSH1 0x24 ADD PUSH2 0x311 JUMP JUMPDEST PUSH2 0x71E DUP2 PUSH2 0x75F JUMP JUMPDEST POP JUMP JUMPDEST PUSH0 PUSH2 0x72C DUP3 DUP5 PUSH2 0x80B JUMP JUMPDEST SWAP4 SWAP3 POP POP POP JUMP JUMPDEST PUSH0 SLOAD PUSH1 0x1 PUSH1 0x1 PUSH1 0xA0 SHL SUB AND CALLER EQ PUSH2 0x3CA JUMPI PUSH1 0x40 MLOAD PUSH4 0x118CDAA7 PUSH1 0xE0 SHL DUP2 MSTORE CALLER PUSH1 0x4 DUP3 ADD MSTORE PUSH1 0x24 ADD PUSH2 0x311 JUMP JUMPDEST PUSH0 DUP1 SLOAD PUSH1 0x1 PUSH1 0x1 PUSH1 0xA0 SHL SUB DUP4 DUP2 AND PUSH1 0x1 PUSH1 0x1 PUSH1 0xA0 SHL SUB NOT DUP4 AND DUP2 OR DUP5 SSTORE PUSH1 0x40 MLOAD SWAP2 SWAP1 SWAP3 AND SWAP3 DUP4 SWAP2 PUSH32 0x8BE0079C531659141344CD1FD0A4F28419497F9722A3DAAFE3B4186F6B6457E0 SWAP2 SWAP1 LOG3 POP POP JUMP JUMPDEST PUSH0 PUSH2 0x72C DUP3 DUP5 PUSH2 0x81E JUMP JUMPDEST PUSH0 PUSH1 0x20 DUP3 DUP5 SUB SLT ISZERO PUSH2 0x7C9 JUMPI PUSH0 DUP1 REVERT JUMPDEST DUP2 CALLDATALOAD PUSH1 0x1 PUSH1 0x1 PUSH1 0xA0 SHL SUB DUP2 AND DUP2 EQ PUSH2 0x72C JUMPI PUSH0 DUP1 REVERT JUMPDEST PUSH4 0x4E487B71 PUSH1 0xE0 SHL PUSH0 MSTORE PUSH1 0x11 PUSH1 0x4 MSTORE PUSH1 0x24 PUSH0 REVERT JUMPDEST PUSH0 PUSH1 0x1 DUP3 ADD PUSH2 0x804 JUMPI PUSH2 0x804 PUSH2 0x7DF JUMP JUMPDEST POP PUSH1 0x1 ADD SWAP1 JUMP JUMPDEST DUP2 DUP2 SUB DUP2 DUP2 GT ISZERO PUSH2 0x2C2 JUMPI PUSH2 0x2C2 PUSH2 0x7DF JUMP JUMPDEST DUP1 DUP3 ADD DUP1 DUP3 GT ISZERO PUSH2 0x2C2 JUMPI PUSH2 0x2C2 PUSH2 0x7DF JUMP INVALID LOG2 PUSH5 0x6970667358 0x22 SLT KECCAK256 0xBC DUP9 0xC9 SSTORE BALANCE PUSH4 0x62DFED9 LOG1 STOP 0xE SWAP6 0x4A BALANCE 0xA7 0xBA MSIZE DUP11 PUSH6 0x2C426AE20FB7 0xAF 0x23 0xBE 0xD9 0x21 PUSH5 0x736F6C6343 STOP ADDMOD EQ STOP CALLER "
				},
				"gasEstimates": {
					"creation": {
						"codeDepositCost": "430200",
						"executionCost": "infinite",
						"totalCost": "infinite"
					},
					"external": {
						"activeStakes(address)": "2494",
						"canWithdraw(address)": "infinite",
						"claimPrize()": "infinite",
						"fundPrizePool()": "27728",
						"hasPlayed(address)": "2561",
						"lastPlayed(address)": "2536",
						"owner()": "2366",
						"playGame()": "123395",
						"prizePool()": "2306",
						"renounceOwnership()": "infinite",
						"stakeAmount()": "2328",
						"totalGamesPlayed()": "2306",
						"transferOwnership(address)": "28382",
						"withdrawStake()": "infinite"
					}
				},
				"methodIdentifiers": {
					"activeStakes(address)": "07cc6d69",
					"canWithdraw(address)": "19262d30",
					"claimPrize()": "70740ac9",
					"fundPrizePool()": "88b2f7c3",
					"hasPlayed(address)": "32d0bbe3",
					"lastPlayed(address)": "c506f233",
					"owner()": "8da5cb5b",
					"playGame()": "af899735",
					"prizePool()": "719ce73e",
					"renounceOwnership()": "715018a6",
					"stakeAmount()": "60c7dc47",
					"totalGamesPlayed()": "5c492129",
					"transferOwnership(address)": "f2fde38b",
					"withdrawStake()": "bed9d861"
				}
			},
			"storageLayout": {
				"storage": [
					{
						"astId": 8,
						"contract": "gameContract.sol:VersaGames",
						"label": "_owner",
						"offset": 0,
						"slot": "0",
						"type": "t_address"
					},
					{
						"astId": 500,
						"contract": "gameContract.sol:VersaGames",
						"label": "stakeAmount",
						"offset": 0,
						"slot": "1",
						"type": "t_uint256"
					},
					{
						"astId": 502,
						"contract": "gameContract.sol:VersaGames",
						"label": "prizePool",
						"offset": 0,
						"slot": "2",
						"type": "t_uint256"
					},
					{
						"astId": 504,
						"contract": "gameContract.sol:VersaGames",
						"label": "totalGamesPlayed",
						"offset": 0,
						"slot": "3",
						"type": "t_uint256"
					},
					{
						"astId": 508,
						"contract": "gameContract.sol:VersaGames",
						"label": "activeStakes",
						"offset": 0,
						"slot": "4",
						"type": "t_mapping(t_address,t_uint256)"
					},
					{
						"astId": 512,
						"contract": "gameContract.sol:VersaGames",
						"label": "hasPlayed",
						"offset": 0,
						"slot": "5",
						"type": "t_mapping(t_address,t_bool)"
					},
					{
						"astId": 516,
						"contract": "gameContract.sol:VersaGames",
						"label": "lastPlayed",
						"offset": 0,
						"slot": "6",
						"type": "t_mapping(t_address,t_uint256)"
					}
				],
				"types": {
					"t_address": {
						"encoding": "inplace",
						"label": "address",
						"numberOfBytes": "20"
					},
					"t_bool": {
						"encoding": "inplace",
						"label": "bool",
						"numberOfBytes": "1"
					},
					"t_mapping(t_address,t_bool)": {
						"encoding": "mapping",
						"key": "t_address",
						"label": "mapping(address => bool)",
						"numberOfBytes": "32",
						"value": "t_bool"
					},
					"t_mapping(t_address,t_uint256)": {
						"encoding": "mapping",
						"key": "t_address",
						"label": "mapping(address => uint256)",
						"numberOfBytes": "32",
						"value": "t_uint256"
					},
					"t_uint256": {
						"encoding": "inplace",
						"label": "uint256",
						"numberOfBytes": "32"
					}
				}
			},
			"userdoc": {
				"kind": "user",
				"methods": {},
				"version": 1
			}
		}
	}
}