{
	"data": {
		"bytecode": {
			"linkReferences": {},
			"object": "608060405234801561000f575f80fd5b5060405161099b38038061099b83398101604081905261002e91610110565b338061005457604051631e4fbdf760e01b81525f60048201526024015b60405180910390fd5b61005d816100c1565b505f81116100b95760405162461bcd60e51b815260206004820152602360248201527f5374616b6520616d6f756e74206d75737420626520677265617465722074686160448201526206e20360ec1b606482015260840161004b565b600155610127565b5f80546001600160a01b038381166001600160a01b0319831681178455604051919092169283917f8be0079c531659141344cd1fd0a4f28419497f9722a3daafe3b4186f6b6457e09190a35050565b5f60208284031215610120575f80fd5b5051919050565b610867806101345f395ff3fe6080604052600436106100d9575f3560e01c8063719ce73e1161007c578063af89973511610057578063af8997351461020f578063bed9d86114610217578063c506f2331461022b578063f2fde38b14610256575f80fd5b8063719ce73e146101cc57806388b2f7c3146101e15780638da5cb5b146101e9575f80fd5b80635c492129116100b75780635c4921291461017857806360c7dc471461018d57806370740ac9146101a2578063715018a6146101b8575f80fd5b806307cc6d69146100dd57806319262d301461011b57806332d0bbe31461014a575b5f80fd5b3480156100e8575f80fd5b506101086100f73660046107b9565b60046020525f908152604090205481565b6040519081526020015b60405180910390f35b348015610126575f80fd5b5061013a6101353660046107b9565b610275565b6040519015158152602001610112565b348015610155575f80fd5b5061013a6101643660046107b9565b60056020525f908152604090205460ff1681565b348015610183575f80fd5b5061010860035481565b348015610198575f80fd5b5061010860015481565b3480156101ad575f80fd5b506101b66102c8565b005b3480156101c3575f80fd5b506101b66103b9565b3480156101d7575f80fd5b5061010860025481565b6101b66103cc565b3480156101f4575f80fd5b505f546040516001600160a01b039091168152602001610112565b6101b6610474565b348015610222575f80fd5b506101b66105ac565b348015610236575f80fd5b506101086102453660046107b9565b60066020525f908152604090205481565b348015610261575f80fd5b506101b66102703660046107b9565b6106e4565b6001600160a01b0381165f9081526005602052604081205460ff1680156102c257506001600160a01b0382165f9081526006602052604090205462015180906102bf904290610721565b10155b92915050565b6102d0610733565b5f6002541161031a5760405162461bcd60e51b81526020600482015260116024820152704e6f207072697a6520746f20636c61696d60781b60448201526064015b60405180910390fd5b600280545f9091556103335f546001600160a01b031690565b6001600160a01b03166108fc8290811502906040515f60405180830381858888f19350505050158015610368573d5f803e3d5ffd5b505f546001600160a01b03166001600160a01b03167f95681e512bc0fe659e195e06c283eada494316f3d801213e48e7101af92bf770826040516103ae91815260200190565b60405180910390a250565b6103c1610733565b6103ca5f61075f565b565b6103d4610733565b5f341161042f5760405162461bcd60e51b8152602060048201526024808201527f4d7573742073656e642045544820746f2066756e6420746865207072697a65206044820152631c1bdbdb60e21b6064820152608401610311565b60025461043c90346107ae565b6002556040513481527f9d81ff1364df34467b23be983916ca00ebe5b231f3c47645a0ad063b56589f489060200160405180910390a1565b60015434146104be5760405162461bcd60e51b8152602060048201526016602482015275125b98dbdc9c9958dd081cdd185ad948185b5bdd5b9d60521b6044820152606401610311565b335f9081526005602052604090205460ff161561051d5760405162461bcd60e51b815260206004820152601c60248201527f416c726561647920706c6179656420696e207468697320726f756e64000000006044820152606401610311565b335f90815260046020908152604080832034905560058252808320805460ff1916600117905560069091528120429055600380549161055b836107f3565b909155505060025461056d90346107ae565b6002556040805134815242602082015233917f24b31e1dbf1732a12bb700d3d77e5fb96ff3b693374d9fa15ccbc03f42715076910160405180910390a2565b335f9081526005602052604090205460ff166105fc5760405162461bcd60e51b815260206004820152600f60248201526e4e6f20616374697665207374616b6560881b6044820152606401610311565b335f90815260066020526040902054620151809061061b904290610721565b10156106625760405162461bcd60e51b81526020600482015260166024820152755374616b65206c6f636b656420666f7220312064617960501b6044820152606401610311565b335f8181526004602090815260408083208054908490556005909252808320805460ff191690555190929183156108fc02918491818181858888f193505050501580156106b1573d5f803e3d5ffd5b5060405181815233907f8108595eb6bad3acefa9da467d90cc2217686d5c5ac85460f8b7849c840645fc906020016103ae565b6106ec610733565b6001600160a01b03811661071557604051631e4fbdf760e01b81525f6004820152602401610311565b61071e8161075f565b50565b5f61072c828461080b565b9392505050565b5f546001600160a01b031633146103ca5760405163118cdaa760e01b8152336004820152602401610311565b5f80546001600160a01b038381166001600160a01b0319831681178455604051919092169283917f8be0079c531659141344cd1fd0a4f28419497f9722a3daafe3b4186f6b6457e09190a35050565b5f61072c828461081e565b5f602082840312156107c9575f80fd5b81356001600160a01b038116811461072c575f80fd5b634e487b7160e01b5f52601160045260245ffd5b5f60018201610804576108046107df565b5060010190565b818103818111156102c2576102c26107df565b808201808211156102c2576102c26107df56fea26469706673582212200d29acf80ea53763b5faa2a01bd3120f08cb8700901ab08c6ef6c0c5458256e064736f6c63430008140033",
			"opcodes": "PUSH1 0x80 PUSH1 0x40 MSTORE CALLVALUE DUP1 ISZERO PUSH2 0xF JUMPI PUSH0 DUP1 REVERT JUMPDEST POP PUSH1 0x40 MLOAD PUSH2 0x99B CODESIZE SUB DUP1 PUSH2 0x99B DUP4 CODECOPY DUP2 ADD PUSH1 0x40 DUP2 SWAP1 MSTORE PUSH2 0x2E SWAP2 PUSH2 0x110 JUMP JUMPDEST CALLER DUP1 PUSH2 0x54 JUMPI PUSH1 0x40 MLOAD PUSH4 0x1E4FBDF7 PUSH1 0xE0 SHL DUP2 MSTORE PUSH0 PUSH1 0x4 DUP3 ADD MSTORE PUSH1 0x24 ADD JUMPDEST PUSH1 0x40 MLOAD DUP1 SWAP2 SUB SWAP1 REVERT JUMPDEST PUSH2 0x5D DUP2 PUSH2 0xC1 JUMP JUMPDEST POP PUSH0 DUP2 GT PUSH2 0xB9 JUMPI PUSH1 0x40 MLOAD PUSH3 0x461BCD PUSH1 0xE5 SHL DUP2 MSTORE PUSH1 0x20 PUSH1 0x4 DUP3 ADD MSTORE PUSH1 0x23 PUSH1 0x24 DUP3 ADD MSTORE PUSH32 0x5374616B6520616D6F756E74206D757374206265206772656174657220746861 PUSH1 0x44 DUP3 ADD MSTORE PUSH3 0x6E203 PUSH1 0xEC SHL PUSH1 0x64 DUP3 ADD MSTORE PUSH1 0x84 ADD PUSH2 0x4B JUMP JUMPDEST PUSH1 0x1 SSTORE PUSH2 0x127 JUMP JUMPDEST PUSH0 DUP1 SLOAD PUSH1 0x1 PUSH1 0x1 PUSH1 0xA0 SHL SUB DUP4 DUP2 AND PUSH1 0x1 PUSH1 0x1 PUSH1 0xA0 SHL SUB NOT DUP4 AND DUP2 OR DUP5 SSTORE PUSH1 0x40 MLOAD SWAP2 SWAP1 SWAP3 AND SWAP3 DUP4 SWAP2 PUSH32 0x8BE0079C531659141344CD1FD0A4F28419497F9722A3DAAFE3B4186F6B6457E0 SWAP2 SWAP1 LOG3 POP POP JUMP JUMPDEST PUSH0 PUSH1 0x20 DUP3 DUP5 SUB SLT ISZERO PUSH2 0x120 JUMPI PUSH0 DUP1 REVERT JUMPDEST POP MLOAD SWAP2 SWAP1 POP JUMP JUMPDEST PUSH2 0x867 DUP1 PUSH2 0x134 PUSH0 CODECOPY PUSH0 RETURN INVALID PUSH1 0x80 PUSH1 0x40 MSTORE PUSH1 0x4 CALLDATASIZE LT PUSH2 0xD9 JUMPI PUSH0 CALLDATALOAD PUSH1 0xE0 SHR DUP1 PUSH4 0x719CE73E GT PUSH2 0x7C JUMPI DUP1 PUSH4 0xAF899735 GT PUSH2 0x57 JUMPI DUP1 PUSH4 0xAF899735 EQ PUSH2 0x20F JUMPI DUP1 PUSH4 0xBED9D861 EQ PUSH2 0x217 JUMPI DUP1 PUSH4 0xC506F233 EQ PUSH2 0x22B JUMPI DUP1 PUSH4 0xF2FDE38B EQ PUSH2 0x256 JUMPI PUSH0 DUP1 REVERT JUMPDEST DUP1 PUSH4 0x719CE73E EQ PUSH2 0x1CC JUMPI DUP1 PUSH4 0x88B2F7C3 EQ PUSH2 0x1E1 JUMPI DUP1 PUSH4 0x8DA5CB5B EQ PUSH2 0x1E9 JUMPI PUSH0 DUP1 REVERT JUMPDEST DUP1 PUSH4 0x5C492129 GT PUSH2 0xB7 JUMPI DUP1 PUSH4 0x5C492129 EQ PUSH2 0x178 JUMPI DUP1 PUSH4 0x60C7DC47 EQ PUSH2 0x18D JUMPI DUP1 PUSH4 0x70740AC9 EQ PUSH2 0x1A2 JUMPI DUP1 PUSH4 0x715018A6 EQ PUSH2 0x1B8 JUMPI PUSH0 DUP1 REVERT JUMPDEST DUP1 PUSH4 0x7CC6D69 EQ PUSH2 0xDD JUMPI DUP1 PUSH4 0x19262D30 EQ PUSH2 0x11B JUMPI DUP1 PUSH4 0x32D0BBE3 EQ PUSH2 0x14A JUMPI JUMPDEST PUSH0 DUP1 REVERT JUMPDEST CALLVALUE DUP1 ISZERO PUSH2 0xE8 JUMPI PUSH0 DUP1 REVERT JUMPDEST POP PUSH2 0x108 PUSH2 0xF7 CALLDATASIZE PUSH1 0x4 PUSH2 0x7B9 JUMP JUMPDEST PUSH1 0x4 PUSH1 0x20 MSTORE PUSH0 SWAP1 DUP2 MSTORE PUSH1 0x40 SWAP1 KECCAK256 SLOAD DUP2 JUMP JUMPDEST PUSH1 0x40 MLOAD SWAP1 DUP2 MSTORE PUSH1 0x20 ADD JUMPDEST PUSH1 0x40 MLOAD DUP1 SWAP2 SUB SWAP1 RETURN JUMPDEST CALLVALUE DUP1 ISZERO PUSH2 0x126 JUMPI PUSH0 DUP1 REVERT JUMPDEST POP PUSH2 0x13A PUSH2 0x135 CALLDATASIZE PUSH1 0x4 PUSH2 0x7B9 JUMP JUMPDEST PUSH2 0x275 JUMP JUMPDEST PUSH1 0x40 MLOAD SWAP1 ISZERO ISZERO DUP2 MSTORE PUSH1 0x20 ADD PUSH2 0x112 JUMP JUMPDEST CALLVALUE DUP1 ISZERO PUSH2 0x155 JUMPI PUSH0 DUP1 REVERT JUMPDEST POP PUSH2 0x13A PUSH2 0x164 CALLDATASIZE PUSH1 0x4 PUSH2 0x7B9 JUMP JUMPDEST PUSH1 0x5 PUSH1 0x20 MSTORE PUSH0 SWAP1 DUP2 MSTORE PUSH1 0x40 SWAP1 KECCAK256 SLOAD PUSH1 0xFF AND DUP2 JUMP JUMPDEST CALLVALUE DUP1 ISZERO PUSH2 0x183 JUMPI PUSH0 DUP1 REVERT JUMPDEST POP PUSH2 0x108 PUSH1 0x3 SLOAD DUP2 JUMP JUMPDEST CALLVALUE DUP1 ISZERO PUSH2 0x198 JUMPI PUSH0 DUP1 REVERT JUMPDEST POP PUSH2 0x108 PUSH1 0x1 SLOAD DUP2 JUMP JUMPDEST CALLVALUE DUP1 ISZERO PUSH2 0x1AD JUMPI PUSH0 DUP1 REVERT JUMPDEST POP PUSH2 0x1B6 PUSH2 0x2C8 JUMP JUMPDEST STOP JUMPDEST CALLVALUE DUP1 ISZERO PUSH2 0x1C3 JUMPI PUSH0 DUP1 REVERT JUMPDEST POP PUSH2 0x1B6 PUSH2 0x3B9 JUMP JUMPDEST CALLVALUE DUP1 ISZERO PUSH2 0x1D7 JUMPI PUSH0 DUP1 REVERT JUMPDEST POP PUSH2 0x108 PUSH1 0x2 SLOAD DUP2 JUMP JUMPDEST PUSH2 0x1B6 PUSH2 0x3CC JUMP JUMPDEST CALLVALUE DUP1 ISZERO PUSH2 0x1F4 JUMPI PUSH0 DUP1 REVERT JUMPDEST POP PUSH0 SLOAD PUSH1 0x40 MLOAD PUSH1 0x1 PUSH1 0x1 PUSH1 0xA0 SHL SUB SWAP1 SWAP2 AND DUP2 MSTORE PUSH1 0x20 ADD PUSH2 0x112 JUMP JUMPDEST PUSH2 0x1B6 PUSH2 0x474 JUMP JUMPDEST CALLVALUE DUP1 ISZERO PUSH2 0x222 JUMPI PUSH0 DUP1 REVERT JUMPDEST POP PUSH2 0x1B6 PUSH2 0x5AC JUMP JUMPDEST CALLVALUE DUP1 ISZERO PUSH2 0x236 JUMPI PUSH0 DUP1 REVERT JUMPDEST POP PUSH2 0x108 PUSH2 0x245 CALLDATASIZE PUSH1 0x4 PUSH2 0x7B9 JUMP JUMPDEST PUSH1 0x6 PUSH1 0x20 MSTORE PUSH0 SWAP1 DUP2 MSTORE PUSH1 0x40 SWAP1 KECCAK256 SLOAD DUP2 JUMP JUMPDEST CALLVALUE DUP1 ISZERO PUSH2 0x261 JUMPI PUSH0 DUP1 REVERT JUMPDEST POP PUSH2 0x1B6 PUSH2 0x270 CALLDATASIZE PUSH1 0x4 PUSH2 0x7B9 JUMP JUMPDEST PUSH2 0x6E4 JUMP JUMPDEST PUSH1 0x1 PUSH1 0x1 PUSH1 0xA0 SHL SUB DUP2 AND PUSH0 SWAP1 DUP2 MSTORE PUSH1 0x5 PUSH1 0x20 MSTORE PUSH1 0x40 DUP2 KECCAK256 SLOAD PUSH1 0xFF AND DUP1 ISZERO PUSH2 0x2C2 JUMPI POP PUSH1 0x1 PUSH1 0x1 PUSH1 0xA0 SHL SUB DUP3 AND PUSH0 SWAP1 DUP2 MSTORE PUSH1 0x6 PUSH1 0x20 MSTORE PUSH1 0x40 SWAP1 KECCAK256 SLOAD PUSH3 0x15180 SWAP1 PUSH2 0x2BF SWAP1 TIMESTAMP SWAP1 PUSH2 0x721 JUMP JUMPDEST LT ISZERO JUMPDEST SWAP3 SWAP2 POP POP JUMP JUMPDEST PUSH2 0x2D0 PUSH2 0x733 JUMP JUMPDEST PUSH0 PUSH1 0x2 SLOAD GT PUSH2 0x31A JUMPI PUSH1 0x40 MLOAD PUSH3 0x461BCD PUSH1 0xE5 SHL DUP2 MSTORE PUSH1 0x20 PUSH1 0x4 DUP3 ADD MSTORE PUSH1 0x11 PUSH1 0x24 DUP3 ADD MSTORE PUSH17 0x4E6F207072697A6520746F20636C61696D PUSH1 0x78 SHL PUSH1 0x44 DUP3 ADD MSTORE PUSH1 0x64 ADD JUMPDEST PUSH1 0x40 MLOAD DUP1 SWAP2 SUB SWAP1 REVERT JUMPDEST PUSH1 0x2 DUP1 SLOAD PUSH0 SWAP1 SWAP2 SSTORE PUSH2 0x333 PUSH0 SLOAD PUSH1 0x1 PUSH1 0x1 PUSH1 0xA0 SHL SUB AND SWAP1 JUMP JUMPDEST PUSH1 0x1 PUSH1 0x1 PUSH1 0xA0 SHL SUB AND PUSH2 0x8FC DUP3 SWAP1 DUP2 ISZERO MUL SWAP1 PUSH1 0x40 MLOAD PUSH0 PUSH1 0x40 MLOAD DUP1 DUP4 SUB DUP2 DUP6 DUP9 DUP9 CALL SWAP4 POP POP POP POP ISZERO DUP1 ISZERO PUSH2 0x368 JUMPI RETURNDATASIZE PUSH0 DUP1 RETURNDATACOPY RETURNDATASIZE PUSH0 REVERT JUMPDEST POP PUSH0 SLOAD PUSH1 0x1 PUSH1 0x1 PUSH1 0xA0 SHL SUB AND PUSH1 0x1 PUSH1 0x1 PUSH1 0xA0 SHL SUB AND PUSH32 0x95681E512BC0FE659E195E06C283EADA494316F3D801213E48E7101AF92BF770 DUP3 PUSH1 0x40 MLOAD PUSH2 0x3AE SWAP2 DUP2 MSTORE PUSH1 0x20 ADD SWAP1 JUMP JUMPDEST PUSH1 0x40 MLOAD DUP1 SWAP2 SUB SWAP1 LOG2 POP JUMP JUMPDEST PUSH2 0x3C1 PUSH2 0x733 JUMP JUMPDEST PUSH2 0x3CA PUSH0 PUSH2 0x75F JUMP JUMPDEST JUMP JUMPDEST PUSH2 0x3D4 PUSH2 0x733 JUMP JUMPDEST PUSH0 CALLVALUE GT PUSH2 0x42F JUMPI PUSH1 0x40 MLOAD PUSH3 0x461BCD PUSH1 0xE5 SHL DUP2 MSTORE PUSH1 0x20 PUSH1 0x4 DUP3 ADD MSTORE PUSH1 0x24 DUP1 DUP3 ADD MSTORE PUSH32 0x4D7573742073656E642045544820746F2066756E6420746865207072697A6520 PUSH1 0x44 DUP3 ADD MSTORE PUSH4 0x1C1BDBDB PUSH1 0xE2 SHL PUSH1 0x64 DUP3 ADD MSTORE PUSH1 0x84 ADD PUSH2 0x311 JUMP JUMPDEST PUSH1 0x2 SLOAD PUSH2 0x43C SWAP1 CALLVALUE PUSH2 0x7AE JUMP JUMPDEST PUSH1 0x2 SSTORE PUSH1 0x40 MLOAD CALLVALUE DUP2 MSTORE PUSH32 0x9D81FF1364DF34467B23BE983916CA00EBE5B231F3C47645A0AD063B56589F48 SWAP1 PUSH1 0x20 ADD PUSH1 0x40 MLOAD DUP1 SWAP2 SUB SWAP1 LOG1 JUMP JUMPDEST PUSH1 0x1 SLOAD CALLVALUE EQ PUSH2 0x4BE JUMPI PUSH1 0x40 MLOAD PUSH3 0x461BCD PUSH1 0xE5 SHL DUP2 MSTORE PUSH1 0x20 PUSH1 0x4 DUP3 ADD MSTORE PUSH1 0x16 PUSH1 0x24 DUP3 ADD MSTORE PUSH22 0x125B98DBDC9C9958DD081CDD185AD948185B5BDD5B9D PUSH1 0x52 SHL PUSH1 0x44 DUP3 ADD MSTORE PUSH1 0x64 ADD PUSH2 0x311 JUMP JUMPDEST CALLER PUSH0 SWAP1 DUP2 MSTORE PUSH1 0x5 PUSH1 0x20 MSTORE PUSH1 0x40 SWAP1 KECCAK256 SLOAD PUSH1 0xFF AND ISZERO PUSH2 0x51D JUMPI PUSH1 0x40 MLOAD PUSH3 0x461BCD PUSH1 0xE5 SHL DUP2 MSTORE PUSH1 0x20 PUSH1 0x4 DUP3 ADD MSTORE PUSH1 0x1C PUSH1 0x24 DUP3 ADD MSTORE PUSH32 0x416C726561647920706C6179656420696E207468697320726F756E6400000000 PUSH1 0x44 DUP3 ADD MSTORE PUSH1 0x64 ADD PUSH2 0x311 JUMP JUMPDEST CALLER PUSH0 SWAP1 DUP2 MSTORE PUSH1 0x4 PUSH1 0x20 SWAP1 DUP2 MSTORE PUSH1 0x40 DUP1 DUP4 KECCAK256 CALLVALUE SWAP1 SSTORE PUSH1 0x5 DUP3 MSTORE DUP1 DUP4 KECCAK256 DUP1 SLOAD PUSH1 0xFF NOT AND PUSH1 0x1 OR SWAP1 SSTORE PUSH1 0x6 SWAP1 SWAP2 MSTORE DUP2 KECCAK256 TIMESTAMP SWAP1 SSTORE PUSH1 0x3 DUP1 SLOAD SWAP2 PUSH2 0x55B DUP4 PUSH2 0x7F3 JUMP JUMPDEST SWAP1 SWAP2 SSTORE POP POP PUSH1 0x2 SLOAD PUSH2 0x56D SWAP1 CALLVALUE PUSH2 0x7AE JUMP JUMPDEST PUSH1 0x2 SSTORE PUSH1 0x40 DUP1 MLOAD CALLVALUE DUP2 MSTORE TIMESTAMP PUSH1 0x20 DUP3 ADD MSTORE CALLER SWAP2 PUSH32 0x24B31E1DBF1732A12BB700D3D77E5FB96FF3B693374D9FA15CCBC03F42715076 SWAP2 ADD PUSH1 0x40 MLOAD DUP1 SWAP2 SUB SWAP1 LOG2 JUMP JUMPDEST CALLER PUSH0 SWAP1 DUP2 MSTORE PUSH1 0x5 PUSH1 0x20 MSTORE PUSH1 0x40 SWAP1 KECCAK256 SLOAD PUSH1 0xFF AND PUSH2 0x5FC JUMPI PUSH1 0x40 MLOAD PUSH3 0x461BCD PUSH1 0xE5 SHL DUP2 MSTORE PUSH1 0x20 PUSH1 0x4 DUP3 ADD MSTORE PUSH1 0xF PUSH1 0x24 DUP3 ADD MSTORE PUSH15 0x4E6F20616374697665207374616B65 PUSH1 0x88 SHL PUSH1 0x44 DUP3 ADD MSTORE PUSH1 0x64 ADD PUSH2 0x311 JUMP JUMPDEST CALLER PUSH0 SWAP1 DUP2 MSTORE PUSH1 0x6 PUSH1 0x20 MSTORE PUSH1 0x40 SWAP1 KECCAK256 SLOAD PUSH3 0x15180 SWAP1 PUSH2 0x61B SWAP1 TIMESTAMP SWAP1 PUSH2 0x721 JUMP JUMPDEST LT ISZERO PUSH2 0x662 JUMPI PUSH1 0x40 MLOAD PUSH3 0x461BCD PUSH1 0xE5 SHL DUP2 MSTORE PUSH1 0x20 PUSH1 0x4 DUP3 ADD MSTORE PUSH1 0x16 PUSH1 0x24 DUP3 ADD MSTORE PUSH22 0x5374616B65206C6F636B656420666F72203120646179 PUSH1 0x50 SHL PUSH1 0x44 DUP3 ADD MSTORE PUSH1 0x64 ADD PUSH2 0x311 JUMP JUMPDEST CALLER PUSH0 DUP2 DUP2 MSTORE PUSH1 0x4 PUSH1 0x20 SWAP1 DUP2 MSTORE PUSH1 0x40 DUP1 DUP4 KECCAK256 DUP1 SLOAD SWAP1 DUP5 SWAP1 SSTORE PUSH1 0x5 SWAP1 SWAP3 MSTORE DUP1 DUP4 KECCAK256 DUP1 SLOAD PUSH1 0xFF NOT AND SWAP1 SSTORE MLOAD SWAP1 SWAP3 SWAP2 DUP4 ISZERO PUSH2 0x8FC MUL SWAP2 DUP5 SWAP2 DUP2 DUP2 DUP2 DUP6 DUP9 DUP9 CALL SWAP4 POP POP POP POP ISZERO DUP1 ISZERO PUSH2 0x6B1 JUMPI RETURNDATASIZE PUSH0 DUP1 RETURNDATACOPY RETURNDATASIZE PUSH0 REVERT JUMPDEST POP PUSH1 0x40 MLOAD DUP2 DUP2 MSTORE CALLER SWAP1 PUSH32 0x8108595EB6BAD3ACEFA9DA467D90CC2217686D5C5AC85460F8B7849C840645FC SWAP1 PUSH1 0x20 ADD PUSH2 0x3AE JUMP JUMPDEST PUSH2 0x6EC PUSH2 0x733 JUMP JUMPDEST PUSH1 0x1 PUSH1 0x1 PUSH1 0xA0 SHL SUB DUP2 AND PUSH2 0x715 JUMPI PUSH1 0x40 MLOAD PUSH4 0x1E4FBDF7 PUSH1 0xE0 SHL DUP2 MSTORE PUSH0 PUSH1 0x4 DUP3 ADD MSTORE PUSH1 0x24 ADD PUSH2 0x311 JUMP JUMPDEST PUSH2 0x71E DUP2 PUSH2 0x75F JUMP JUMPDEST POP JUMP JUMPDEST PUSH0 PUSH2 0x72C DUP3 DUP5 PUSH2 0x80B JUMP JUMPDEST SWAP4 SWAP3 POP POP POP JUMP JUMPDEST PUSH0 SLOAD PUSH1 0x1 PUSH1 0x1 PUSH1 0xA0 SHL SUB AND CALLER EQ PUSH2 0x3CA JUMPI PUSH1 0x40 MLOAD PUSH4 0x118CDAA7 PUSH1 0xE0 SHL DUP2 MSTORE CALLER PUSH1 0x4 DUP3 ADD MSTORE PUSH1 0x24 ADD PUSH2 0x311 JUMP JUMPDEST PUSH0 DUP1 SLOAD PUSH1 0x1 PUSH1 0x1 PUSH1 0xA0 SHL SUB DUP4 DUP2 AND PUSH1 0x1 PUSH1 0x1 PUSH1 0xA0 SHL SUB NOT DUP4 AND DUP2 OR DUP5 SSTORE PUSH1 0x40 MLOAD SWAP2 SWAP1 SWAP3 AND SWAP3 DUP4 SWAP2 PUSH32 0x8BE0079C531659141344CD1FD0A4F28419497F9722A3DAAFE3B4186F6B6457E0 SWAP2 SWAP1 LOG3 POP POP JUMP JUMPDEST PUSH0 PUSH2 0x72C DUP3 DUP5 PUSH2 0x81E JUMP JUMPDEST PUSH0 PUSH1 0x20 DUP3 DUP5 SUB SLT ISZERO PUSH2 0x7C9 JUMPI PUSH0 DUP1 REVERT JUMPDEST DUP2 CALLDATALOAD PUSH1 0x1 PUSH1 0x1 PUSH1 0xA0 SHL SUB DUP2 AND DUP2 EQ PUSH2 0x72C JUMPI PUSH0 DUP1 REVERT JUMPDEST PUSH4 0x4E487B71 PUSH1 0xE0 SHL PUSH0 MSTORE PUSH1 0x11 PUSH1 0x4 MSTORE PUSH1 0x24 PUSH0 REVERT JUMPDEST PUSH0 PUSH1 0x1 DUP3 ADD PUSH2 0x804 JUMPI PUSH2 0x804 PUSH2 0x7DF JUMP JUMPDEST POP PUSH1 0x1 ADD SWAP1 JUMP JUMPDEST DUP2 DUP2 SUB DUP2 DUP2 GT ISZERO PUSH2 0x2C2 JUMPI PUSH2 0x2C2 PUSH2 0x7DF JUMP JUMPDEST DUP1 DUP3 ADD DUP1 DUP3 GT ISZERO PUSH2 0x2C2 JUMPI PUSH2 0x2C2 PUSH2 0x7DF JUMP INVALID LOG2 PUSH5 0x6970667358 0x22 SLT KECCAK256 0xD 0x29 0xAC 0xF8 0xE 0xA5 CALLDATACOPY PUSH4 0xB5FAA2A0 SHL 0xD3 SLT 0xF ADDMOD 0xCB DUP8 STOP SWAP1 BYTE 0xB0 DUP13 PUSH15 0xF6C0C5458256E064736F6C63430008 EQ STOP CALLER "
		},
		"gasEstimates": {
			"creation": {
				"codeDepositCost": "430200",
				"executionCost": "infinite",
				"totalCost": "infinite"
			},
			"external": {
				"activeStakes(address)": "2494",
				"canWithdraw(address)": "infinite",
				"claimPrize()": "infinite",
				"fundPrizePool()": "27728",
				"hasPlayed(address)": "2561",
				"lastPlayed(address)": "2536",
				"owner()": "2366",
				"playGame()": "123395",
				"prizePool()": "2306",
				"renounceOwnership()": "infinite",
				"stakeAmount()": "2328",
				"totalGamesPlayed()": "2306",
				"transferOwnership(address)": "28382",
				"withdrawStake()": "infinite"
			}
		},
		"methodIdentifiers": {
			"activeStakes(address)": "07cc6d69",
			"canWithdraw(address)": "19262d30",
			"claimPrize()": "70740ac9",
			"fundPrizePool()": "88b2f7c3",
			"hasPlayed(address)": "32d0bbe3",
			"lastPlayed(address)": "c506f233",
			"owner()": "8da5cb5b",
			"playGame()": "af899735",
			"prizePool()": "719ce73e",
			"renounceOwnership()": "715018a6",
			"stakeAmount()": "60c7dc47",
			"totalGamesPlayed()": "5c492129",
			"transferOwnership(address)": "f2fde38b",
			"withdrawStake()": "bed9d861"
		}
	},
	"abi": [
		{
			"inputs": [
				{
					"internalType": "uint256",
					"name": "_initialStakeAmount",
					"type": "uint256"
				}
			],
			"stateMutability": "nonpayable",
			"type": "constructor"
		},
		{
			"inputs": [
				{
					"internalType": "address",
					"name": "owner",
					"type": "address"
				}
			],
			"name": "OwnableInvalidOwner",
			"type": "error"
		},
		{
			"inputs": [
				{
					"internalType": "address",
					"name": "account",
					"type": "address"
				}
			],
			"name": "OwnableUnauthorizedAccount",
			"type": "error"
		},
		{
			"anonymous": false,
			"inputs": [
				{
					"indexed": true,
					"internalType": "address",
					"name": "player",
					"type": "address"
				},
				{
					"indexed": false,
					"internalType": "uint256",
					"name": "amount",
					"type": "uint256"
				},
				{
					"indexed": false,
					"internalType": "uint256",
					"name": "timestamp",
					"type": "uint256"
				}
			],
			"name": "GamePlayed",
			"type": "event"
		},
		{
			"anonymous": false,
			"inputs": [
				{
					"indexed": true,
					"internalType": "address",
					"name": "previousOwner",
					"type": "address"
				},
				{
					"indexed": true,
					"internalType": "address",
					"name": "newOwner",
					"type": "address"
				}
			],
			"name": "OwnershipTransferred",
			"type": "event"
		},
		{
			"anonymous": false,
			"inputs": [
				{
					"indexed": true,
					"internalType": "address",
					"name": "winner",
					"type": "address"
				},
				{
					"indexed": false,
					"internalType": "uint256",
					"name": "amount",
					"type": "uint256"
				}
			],
			"name": "PrizeClaimed",
			"type": "event"
		},
		{
			"anonymous": false,
			"inputs": [
				{
					"indexed": false,
					"internalType": "uint256",
					"name": "amount",
					"type": "uint256"
				}
			],
			"name": "PrizePoolFunded",
			"type": "event"
		},
		{
			"anonymous": false,
			"inputs": [
				{
					"indexed": true,
					"internalType": "address",
					"name": "player",
					"type": "address"
				},
				{
					"indexed": false,
					"internalType": "uint256",
					"name": "amount",
					"type": "uint256"
				}
			],
			"name": "StakeWithdrawn",
			"type": "event"
		},
		{
			"inputs": [
				{
					"internalType": "address",
					"name": "",
					"type": "address"
				}
			],
			"name": "activeStakes",
			"outputs": [
				{
					"internalType": "uint256",
					"name": "",
					"type": "uint256"
				}
			],
			"stateMutability": "view",
			"type": "function"
		},
		{
			"inputs": [
				{
					"internalType": "address",
					"name": "player",
					"type": "address"
				}
			],
			"name": "canWithdraw",
			"outputs": [
				{
					"internalType": "bool",
					"name": "",
					"type": "bool"
				}
			],
			"stateMutability": "view",
			"type": "function"
		},
		{
			"inputs": [],
			"name": "claimPrize",
			"outputs": [],
			"stateMutability": "nonpayable",
			"type": "function"
		},
		{
			"inputs": [],
			"name": "fundPrizePool",
			"outputs": [],
			"stateMutability": "payable",
			"type": "function"
		},
		{
			"inputs": [
				{
					"internalType": "address",
					"name": "",
					"type": "address"
				}
			],
			"name": "hasPlayed",
			"outputs": [
				{
					"internalType": "bool",
					"name": "",
					"type": "bool"
				}
			],
			"stateMutability": "view",
			"type": "function"
		},
		{
			"inputs": [
				{
					"internalType": "address",
					"name": "",
					"type": "address"
				}
			],
			"name": "lastPlayed",
			"outputs": [
				{
					"internalType": "uint256",
					"name": "",
					"type": "uint256"
				}
			],
			"stateMutability": "view",
			"type": "function"
		},
		{
			"inputs": [],
			"name": "owner",
			"outputs": [
				{
					"internalType": "address",
					"name": "",
					"type": "address"
				}
			],
			"stateMutability": "view",
			"type": "function"
		},
		{
			"inputs": [],
			"name": "playGame",
			"outputs": [],
			"stateMutability": "payable",
			"type": "function"
		},
		{
			"inputs": [],
			"name": "prizePool",
			"outputs": [
				{
					"internalType": "uint256",
					"name": "",
					"type": "uint256"
				}
			],
			"stateMutability": "view",
			"type": "function"
		},
		{
			"inputs": [],
			"name": "renounceOwnership",
			"outputs": [],
			"stateMutability": "nonpayable",
			"type": "function"
		},
		{
			"inputs": [],
			"name": "stakeAmount",
			"outputs": [
				{
					"internalType": "uint256",
					"name": "",
					"type": "uint256"
				}
			],
			"stateMutability": "view",
			"type": "function"
		},
		{
			"inputs": [],
			"name": "totalGamesPlayed",
			"outputs": [
				{
					"internalType": "uint256",
					"name": "",
					"type": "uint256"
				}
			],
			"stateMutability": "view",
			"type": "function"
		},
		{
			"inputs": [
				{
					"internalType": "address",
					"name": "newOwner",
					"type": "address"
				}
			],
			"name": "transferOwnership",
			"outputs": [],
			"stateMutability": "nonpayable",
			"type": "function"
		},
		{
			"inputs": [],
			"name": "withdrawStake",
			"outputs": [],
			"stateMutability": "nonpayable",
			"type": "function"
		}
	]
}